{
  "_format": "hh-sol-artifact-1",
  "contractName": "ListNFT",
  "sourceName": "contracts/ListNFT.sol",
  "abi": [
    {
      "inputs": [],
      "stateMutability": "nonpayable",
      "type": "constructor"
    },
    {
      "anonymous": false,
      "inputs": [
        {
          "indexed": false,
          "internalType": "uint256",
          "name": "bidId",
          "type": "uint256"
        },
        {
          "indexed": true,
          "internalType": "address",
          "name": "nftAddress",
          "type": "address"
        },
        {
          "indexed": true,
          "internalType": "address",
          "name": "bidder",
          "type": "address"
        }
      ],
      "name": "BidCreated",
      "type": "event"
    },
    {
      "anonymous": false,
      "inputs": [
        {
          "indexed": false,
          "internalType": "uint256",
          "name": "bidId",
          "type": "uint256"
        },
        {
          "indexed": true,
          "internalType": "address",
          "name": "bidder",
          "type": "address"
        },
        {
          "indexed": false,
          "internalType": "uint256",
          "name": "amount",
          "type": "uint256"
        }
      ],
      "name": "NewBidPlaced",
      "type": "event"
    },
    {
      "inputs": [
        {
          "internalType": "uint256",
          "name": "_bidid",
          "type": "uint256"
        },
        {
          "internalType": "uint256",
          "name": "_amount",
          "type": "uint256"
        }
      ],
      "name": "bidForNft",
      "outputs": [],
      "stateMutability": "nonpayable",
      "type": "function"
    },
    {
      "inputs": [],
      "name": "bidid",
      "outputs": [
        {
          "internalType": "uint256",
          "name": "",
          "type": "uint256"
        }
      ],
      "stateMutability": "view",
      "type": "function"
    },
    {
      "inputs": [
        {
          "internalType": "uint256",
          "name": "",
          "type": "uint256"
        }
      ],
      "name": "bids",
      "outputs": [
        {
          "internalType": "address",
          "name": "thenft",
          "type": "address"
        },
        {
          "internalType": "address",
          "name": "origialowner",
          "type": "address"
        },
        {
          "internalType": "address",
          "name": "maxbidder",
          "type": "address"
        },
        {
          "internalType": "uint256",
          "name": "amount",
          "type": "uint256"
        },
        {
          "internalType": "uint256",
          "name": "endtime",
          "type": "uint256"
        },
        {
          "internalType": "uint256",
          "name": "starttime",
          "type": "uint256"
        },
        {
          "internalType": "uint256",
          "name": "tokenId",
          "type": "uint256"
        },
        {
          "internalType": "uint256",
          "name": "protection",
          "type": "uint256"
        }
      ],
      "stateMutability": "view",
      "type": "function"
    },
    {
      "inputs": [
        {
          "internalType": "uint256",
          "name": "_bidid",
          "type": "uint256"
        }
      ],
      "name": "changeownerfrombid",
      "outputs": [],
      "stateMutability": "nonpayable",
      "type": "function"
    },
    {
      "inputs": [
        {
          "internalType": "address",
          "name": "_thenft",
          "type": "address"
        },
        {
          "internalType": "uint256",
          "name": "tokenId",
          "type": "uint256"
        },
        {
          "internalType": "uint256",
          "name": "_protection",
          "type": "uint256"
        },
        {
          "internalType": "uint256",
          "name": "_dataaleasa",
          "type": "uint256"
        },
        {
          "internalType": "address",
          "name": "from",
          "type": "address"
        }
      ],
      "name": "createBid",
      "outputs": [],
      "stateMutability": "nonpayable",
      "type": "function"
    },
    {
      "inputs": [],
      "name": "getBidCount",
      "outputs": [
        {
          "internalType": "uint256",
          "name": "",
          "type": "uint256"
        }
      ],
      "stateMutability": "view",
      "type": "function"
    },
    {
      "inputs": [
        {
          "internalType": "uint256",
          "name": "_bidid",
          "type": "uint256"
        }
      ],
      "name": "getBidInfo",
      "outputs": [
        {
          "internalType": "address",
          "name": "",
          "type": "address"
        },
        {
          "internalType": "address",
          "name": "",
          "type": "address"
        },
        {
          "internalType": "address",
          "name": "",
          "type": "address"
        },
        {
          "internalType": "uint256",
          "name": "",
          "type": "uint256"
        },
        {
          "internalType": "uint256",
          "name": "",
          "type": "uint256"
        },
        {
          "internalType": "uint256",
          "name": "",
          "type": "uint256"
        },
        {
          "internalType": "uint256",
          "name": "",
          "type": "uint256"
        }
      ],
      "stateMutability": "view",
      "type": "function"
    },
    {
      "inputs": [
        {
          "internalType": "uint256",
          "name": "_bidid",
          "type": "uint256"
        }
      ],
      "name": "getBidWinner",
      "outputs": [
        {
          "internalType": "address",
          "name": "",
          "type": "address"
        },
        {
          "internalType": "uint256",
          "name": "",
          "type": "uint256"
        }
      ],
      "stateMutability": "view",
      "type": "function"
    },
    {
      "inputs": [
        {
          "internalType": "uint256",
          "name": "_bidid",
          "type": "uint256"
        },
        {
          "internalType": "uint256",
          "name": "_amount",
          "type": "uint256"
        }
      ],
      "name": "newbidamount",
      "outputs": [],
      "stateMutability": "nonpayable",
      "type": "function"
    },
    {
      "inputs": [
        {
          "internalType": "uint256",
          "name": "_bidid",
          "type": "uint256"
        },
        {
          "internalType": "uint256",
          "name": "_amount",
          "type": "uint256"
        }
      ],
      "name": "newbidnoprotection",
      "outputs": [],
      "stateMutability": "nonpayable",
      "type": "function"
    }
  ],
  "bytecode": "0x60806040526000805534801561001457600080fd5b5060008081548092919061002790610232565b9190505550604051806101000160405280732a3fedeb5c4aca4b8728d53eb8344d600de3664473ffffffffffffffffffffffffffffffffffffffff168152602001600173ffffffffffffffffffffffffffffffffffffffff168152602001600173ffffffffffffffffffffffffffffffffffffffff1681526020016064815260200162015180426100b8919061027a565b815260200142815260200160008152602001678ac7230489e80000815250600160008054815260200190815260200160002060008201518160000160006101000a81548173ffffffffffffffffffffffffffffffffffffffff021916908373ffffffffffffffffffffffffffffffffffffffff16021790555060208201518160010160006101000a81548173ffffffffffffffffffffffffffffffffffffffff021916908373ffffffffffffffffffffffffffffffffffffffff16021790555060408201518160020160006101000a81548173ffffffffffffffffffffffffffffffffffffffff021916908373ffffffffffffffffffffffffffffffffffffffff160217905550606082015181600301556080820151816004015560a0820151816005015560c0820151816006015560e082015181600701559050506102ae565b7f4e487b7100000000000000000000000000000000000000000000000000000000600052601160045260246000fd5b6000819050919050565b600061023d82610228565b91507fffffffffffffffffffffffffffffffffffffffffffffffffffffffffffffffff820361026f5761026e6101f9565b5b600182019050919050565b600061028582610228565b915061029083610228565b92508282019050808211156102a8576102a76101f9565b5b92915050565b611290806102bd6000396000f3fe608060405234801561001057600080fd5b506004361061009e5760003560e01c80638081b19b116100665780638081b19b1461016857806395018f7714610199578063a4bf1d26146101b5578063c55b0e11146101d1578063f52fb916146101ed5761009e565b806307473aa0146100a35780632201db31146100bf57806328f6a48a146100f55780634423c5f1146101135780637e3abeb61461014a575b600080fd5b6100bd60048036038101906100b89190610c9e565b610209565b005b6100d960048036038101906100d49190610cde565b610385565b6040516100ec9796959493929190610d5b565b60405180910390f35b6100fd6104fa565b60405161010a9190610dca565b60405180910390f35b61012d60048036038101906101289190610cde565b610503565b604051610141989796959493929190610de5565b60405180910390f35b6101526105ab565b60405161015f9190610dca565b60405180910390f35b610182600480360381019061017d9190610cde565b6105b1565b604051610190929190610e63565b60405180910390f35b6101b360048036038101906101ae9190610c9e565b610663565b005b6101cf60048036038101906101ca9190610c9e565b6107d7565b005b6101eb60048036038101906101e69190610cde565b6108fb565b005b61020760048036038101906102029190610eb8565b6109e1565b005b42600160008481526020019081526020016000206004015411610261576040517f08c379a000000000000000000000000000000000000000000000000000000000815260040161025890610f90565b60405180910390fd5b806001600084815260200190815260200160002060030154106102b9576040517f08c379a00000000000000000000000000000000000000000000000000000000081526004016102b090610ffc565b60405180910390fd5b80600160008481526020019081526020016000206007015410610311576040517f08c379a00000000000000000000000000000000000000000000000000000000081526004016103089061108e565b60405180910390fd5b806001600084815260200190815260200160002060030181905550336001600084815260200190815260200160002060020160006101000a81548173ffffffffffffffffffffffffffffffffffffffff021916908373ffffffffffffffffffffffffffffffffffffffff1602179055505050565b600080600080600080600080881180156103a157506000548811155b6103e0576040517f08c379a00000000000000000000000000000000000000000000000000000000081526004016103d7906110fa565b60405180910390fd5b6001600089815260200190815260200160002060000160009054906101000a900473ffffffffffffffffffffffffffffffffffffffff16600160008a815260200190815260200160002060020160009054906101000a900473ffffffffffffffffffffffffffffffffffffffff16600160008b815260200190815260200160002060010160009054906101000a900473ffffffffffffffffffffffffffffffffffffffff16600160008c815260200190815260200160002060030154600160008d815260200190815260200160002060040154600160008e815260200190815260200160002060050154600160008f8152602001908152602001600020600601549650965096509650965096509650919395979092949650565b60008054905090565b60016020528060005260406000206000915090508060000160009054906101000a900473ffffffffffffffffffffffffffffffffffffffff16908060010160009054906101000a900473ffffffffffffffffffffffffffffffffffffffff16908060020160009054906101000a900473ffffffffffffffffffffffffffffffffffffffff16908060030154908060040154908060050154908060060154908060070154905088565b60005481565b6000804260016000858152602001908152602001600020600401541061060c576040517f08c379a000000000000000000000000000000000000000000000000000000000815260040161060390611166565b60405180910390fd5b6001600084815260200190815260200160002060020160009054906101000a900473ffffffffffffffffffffffffffffffffffffffff16600160008581526020019081526020016000206003015491509150915091565b426001600084815260200190815260200160002060040154116106bb576040517f08c379a00000000000000000000000000000000000000000000000000000000081526004016106b290610f90565b60405180910390fd5b80600160008481526020019081526020016000206003015410610713576040517f08c379a000000000000000000000000000000000000000000000000000000000815260040161070a90610ffc565b60405180910390fd5b336001600084815260200190815260200160002060020160006101000a81548173ffffffffffffffffffffffffffffffffffffffff021916908373ffffffffffffffffffffffffffffffffffffffff1602179055508060016000848152602001908152602001600020600301819055503373ffffffffffffffffffffffffffffffffffffffff167f7136042fc8b502cb7b2f9c23ef190a14de582a02a0ffd89b1c399bb8dd8e6ad383836040516107cb929190611186565b60405180910390a25050565b4260016000848152602001908152602001600020600401541161082f576040517f08c379a000000000000000000000000000000000000000000000000000000000815260040161082690610f90565b60405180910390fd5b80600160008481526020019081526020016000206003015410610887576040517f08c379a000000000000000000000000000000000000000000000000000000000815260040161087e90610ffc565b60405180910390fd5b806001600084815260200190815260200160002060030181905550336001600084815260200190815260200160002060020160006101000a81548173ffffffffffffffffffffffffffffffffffffffff021916908373ffffffffffffffffffffffffffffffffffffffff1602179055505050565b42600160008381526020019081526020016000206004015410610953576040517f08c379a000000000000000000000000000000000000000000000000000000000815260040161094a90611166565b60405180910390fd5b6001600082815260200190815260200160002060020160009054906101000a900473ffffffffffffffffffffffffffffffffffffffff166001600083815260200190815260200160002060010160006101000a81548173ffffffffffffffffffffffffffffffffffffffff021916908373ffffffffffffffffffffffffffffffffffffffff16021790555050565b6000808154809291906109f3906111de565b9190505550600060018303610a0d57620151809050610a4e565b60028303610a205762093a809050610a4d565b60038303610a335762278d009050610a4c565b60048303610a445760789050610a4b565b6201518090505b5b5b5b6040518061010001604052808773ffffffffffffffffffffffffffffffffffffffff1681526020018373ffffffffffffffffffffffffffffffffffffffff1681526020018373ffffffffffffffffffffffffffffffffffffffff168152602001606481526020018242610ac19190611226565b815260200142815260200186815260200185815250600160008054815260200190815260200160002060008201518160000160006101000a81548173ffffffffffffffffffffffffffffffffffffffff021916908373ffffffffffffffffffffffffffffffffffffffff16021790555060208201518160010160006101000a81548173ffffffffffffffffffffffffffffffffffffffff021916908373ffffffffffffffffffffffffffffffffffffffff16021790555060408201518160020160006101000a81548173ffffffffffffffffffffffffffffffffffffffff021916908373ffffffffffffffffffffffffffffffffffffffff160217905550606082015181600301556080820151816004015560a0820151816005015560c0820151816006015560e082015181600701559050503373ffffffffffffffffffffffffffffffffffffffff168673ffffffffffffffffffffffffffffffffffffffff167f21864ebc2d765e9740e60604e3a17e88cabefe875c70a76d7f244892dadaf7bc600054604051610c539190610dca565b60405180910390a3505050505050565b600080fd5b6000819050919050565b610c7b81610c68565b8114610c8657600080fd5b50565b600081359050610c9881610c72565b92915050565b60008060408385031215610cb557610cb4610c63565b5b6000610cc385828601610c89565b9250506020610cd485828601610c89565b9150509250929050565b600060208284031215610cf457610cf3610c63565b5b6000610d0284828501610c89565b91505092915050565b600073ffffffffffffffffffffffffffffffffffffffff82169050919050565b6000610d3682610d0b565b9050919050565b610d4681610d2b565b82525050565b610d5581610c68565b82525050565b600060e082019050610d70600083018a610d3d565b610d7d6020830189610d3d565b610d8a6040830188610d3d565b610d976060830187610d4c565b610da46080830186610d4c565b610db160a0830185610d4c565b610dbe60c0830184610d4c565b98975050505050505050565b6000602082019050610ddf6000830184610d4c565b92915050565b600061010082019050610dfb600083018b610d3d565b610e08602083018a610d3d565b610e156040830189610d3d565b610e226060830188610d4c565b610e2f6080830187610d4c565b610e3c60a0830186610d4c565b610e4960c0830185610d4c565b610e5660e0830184610d4c565b9998505050505050505050565b6000604082019050610e786000830185610d3d565b610e856020830184610d4c565b9392505050565b610e9581610d2b565b8114610ea057600080fd5b50565b600081359050610eb281610e8c565b92915050565b600080600080600060a08688031215610ed457610ed3610c63565b5b6000610ee288828901610ea3565b9550506020610ef388828901610c89565b9450506040610f0488828901610c89565b9350506060610f1588828901610c89565b9250506080610f2688828901610ea3565b9150509295509295909350565b600082825260208201905092915050565b7f4269642068617320656e64656400000000000000000000000000000000000000600082015250565b6000610f7a600d83610f33565b9150610f8582610f44565b602082019050919050565b60006020820190508181036000830152610fa981610f6d565b9050919050565b7f42696420697320746f6f206c6f77000000000000000000000000000000000000600082015250565b6000610fe6600e83610f33565b9150610ff182610fb0565b602082019050919050565b6000602082019050818103600083015261101581610fd9565b9050919050565b7f50726963652069732070726f7465637465642c2042696420697320746f6f206c60008201527f6f77000000000000000000000000000000000000000000000000000000000000602082015250565b6000611078602283610f33565b91506110838261101c565b604082019050919050565b600060208201905081810360008301526110a78161106b565b9050919050565b7f42696420646f6573206e6f742065786973740000000000000000000000000000600082015250565b60006110e4601283610f33565b91506110ef826110ae565b602082019050919050565b60006020820190508181036000830152611113816110d7565b9050919050565b7f42696420686173206e6f7420656e646564000000000000000000000000000000600082015250565b6000611150601183610f33565b915061115b8261111a565b602082019050919050565b6000602082019050818103600083015261117f81611143565b9050919050565b600060408201905061119b6000830185610d4c565b6111a86020830184610d4c565b9392505050565b7f4e487b7100000000000000000000000000000000000000000000000000000000600052601160045260246000fd5b60006111e982610c68565b91507fffffffffffffffffffffffffffffffffffffffffffffffffffffffffffffffff820361121b5761121a6111af565b5b600182019050919050565b600061123182610c68565b915061123c83610c68565b9250828201905080821115611254576112536111af565b5b9291505056fea26469706673582212203ec3c119e110c4a349e7dbb88c154ce7cfff5d2eae2361d7ed540412deeac59164736f6c634300081b0033",
  "linkReferences": {},
  "deployedLinkReferences": {}
}