{
  "_format": "hh-sol-artifact-1",
  "contractName": "ListNFT",
  "sourceName": "contracts/ListNFT.sol",
  "abi": [
    {
      "inputs": [],
      "stateMutability": "nonpayable",
      "type": "constructor"
    },
    {
      "anonymous": false,
      "inputs": [
        {
          "indexed": false,
          "internalType": "uint256",
          "name": "bidId",
          "type": "uint256"
        },
        {
          "indexed": true,
          "internalType": "address",
          "name": "nftAddress",
          "type": "address"
        },
        {
          "indexed": true,
          "internalType": "address",
          "name": "bidder",
          "type": "address"
        }
      ],
      "name": "BidCreated",
      "type": "event"
    },
    {
      "anonymous": false,
      "inputs": [
        {
          "indexed": false,
          "internalType": "uint256",
          "name": "bidId",
          "type": "uint256"
        },
        {
          "indexed": true,
          "internalType": "address",
          "name": "bidder",
          "type": "address"
        },
        {
          "indexed": false,
          "internalType": "uint256",
          "name": "amount",
          "type": "uint256"
        }
      ],
      "name": "NewBidPlaced",
      "type": "event"
    },
    {
      "inputs": [
        {
          "internalType": "uint256",
          "name": "_bidid",
          "type": "uint256"
        },
        {
          "internalType": "uint256",
          "name": "_amount",
          "type": "uint256"
        }
      ],
      "name": "bidForNft",
      "outputs": [],
      "stateMutability": "nonpayable",
      "type": "function"
    },
    {
      "inputs": [],
      "name": "bidid",
      "outputs": [
        {
          "internalType": "uint256",
          "name": "",
          "type": "uint256"
        }
      ],
      "stateMutability": "view",
      "type": "function"
    },
    {
      "inputs": [
        {
          "internalType": "uint256",
          "name": "",
          "type": "uint256"
        }
      ],
      "name": "bids",
      "outputs": [
        {
          "internalType": "address",
          "name": "thenft",
          "type": "address"
        },
        {
          "internalType": "address",
          "name": "maxbidder",
          "type": "address"
        },
        {
          "internalType": "uint256",
          "name": "amount",
          "type": "uint256"
        },
        {
          "internalType": "uint256",
          "name": "endtime",
          "type": "uint256"
        },
        {
          "internalType": "uint256",
          "name": "starttime",
          "type": "uint256"
        },
        {
          "internalType": "uint256",
          "name": "tokenId",
          "type": "uint256"
        }
      ],
      "stateMutability": "view",
      "type": "function"
    },
    {
      "inputs": [
        {
          "internalType": "address",
          "name": "_thenft",
          "type": "address"
        },
        {
          "internalType": "uint256",
          "name": "tokenId",
          "type": "uint256"
        }
      ],
      "name": "createBid",
      "outputs": [],
      "stateMutability": "nonpayable",
      "type": "function"
    },
    {
      "inputs": [],
      "name": "getBidCount",
      "outputs": [
        {
          "internalType": "uint256",
          "name": "",
          "type": "uint256"
        }
      ],
      "stateMutability": "view",
      "type": "function"
    },
    {
      "inputs": [
        {
          "internalType": "uint256",
          "name": "_bidid",
          "type": "uint256"
        }
      ],
      "name": "getBidInfo",
      "outputs": [
        {
          "internalType": "address",
          "name": "",
          "type": "address"
        },
        {
          "internalType": "address",
          "name": "",
          "type": "address"
        },
        {
          "internalType": "uint256",
          "name": "",
          "type": "uint256"
        },
        {
          "internalType": "uint256",
          "name": "",
          "type": "uint256"
        },
        {
          "internalType": "uint256",
          "name": "",
          "type": "uint256"
        },
        {
          "internalType": "uint256",
          "name": "",
          "type": "uint256"
        }
      ],
      "stateMutability": "view",
      "type": "function"
    },
    {
      "inputs": [
        {
          "internalType": "uint256",
          "name": "_bidid",
          "type": "uint256"
        }
      ],
      "name": "getBidWinner",
      "outputs": [
        {
          "internalType": "address",
          "name": "",
          "type": "address"
        },
        {
          "internalType": "uint256",
          "name": "",
          "type": "uint256"
        }
      ],
      "stateMutability": "view",
      "type": "function"
    },
    {
      "inputs": [
        {
          "internalType": "uint256",
          "name": "_bidid",
          "type": "uint256"
        },
        {
          "internalType": "uint256",
          "name": "_amount",
          "type": "uint256"
        }
      ],
      "name": "newbidamount",
      "outputs": [],
      "stateMutability": "nonpayable",
      "type": "function"
    }
  ],
  "bytecode": "0x60806040526000805534801561001457600080fd5b50600080815480929190610027906101b5565b91905055506040518060c00160405280732a3fedeb5c4aca4b8728d53eb8344d600de3664473ffffffffffffffffffffffffffffffffffffffff168152602001600173ffffffffffffffffffffffffffffffffffffffff16815260200160648152602001620151804261009a91906101fd565b81526020014281526020016000815250600160008054815260200190815260200160002060008201518160000160006101000a81548173ffffffffffffffffffffffffffffffffffffffff021916908373ffffffffffffffffffffffffffffffffffffffff16021790555060208201518160010160006101000a81548173ffffffffffffffffffffffffffffffffffffffff021916908373ffffffffffffffffffffffffffffffffffffffff16021790555060408201518160020155606082015181600301556080820151816004015560a08201518160050155905050610231565b7f4e487b7100000000000000000000000000000000000000000000000000000000600052601160045260246000fd5b6000819050919050565b60006101c0826101ab565b91507fffffffffffffffffffffffffffffffffffffffffffffffffffffffffffffffff82036101f2576101f161017c565b5b600182019050919050565b6000610208826101ab565b9150610213836101ab565b925082820190508082111561022b5761022a61017c565b5b92915050565b610d36806102406000396000f3fe608060405234801561001057600080fd5b50600436106100885760003560e01c806370a7eba91161005b57806370a7eba9146101315780637e3abeb61461014d5780638081b19b1461016b57806395018f771461019c57610088565b806307473aa01461008d5780632201db31146100a957806328f6a48a146100de5780634423c5f1146100fc575b600080fd5b6100a760048036038101906100a2919061089d565b6101b8565b005b6100c360048036038101906100be91906108dd565b6102c1565b6040516100d59695949392919061095a565b60405180910390f35b6100e66103fa565b6040516100f391906109bb565b60405180910390f35b610116600480360381019061011191906108dd565b610403565b6040516101289695949392919061095a565b60405180910390f35b61014b60048036038101906101469190610a02565b61047f565b005b610155610636565b60405161016291906109bb565b60405180910390f35b610185600480360381019061018091906108dd565b61063c565b604051610193929190610a42565b60405180910390f35b6101b660048036038101906101b1919061089d565b6106ee565b005b42600160008481526020019081526020016000206003015411610210576040517f08c379a000000000000000000000000000000000000000000000000000000000815260040161020790610ac8565b60405180910390fd5b80600160008481526020019081526020016000206002015410610268576040517f08c379a000000000000000000000000000000000000000000000000000000000815260040161025f90610b34565b60405180910390fd5b3373ffffffffffffffffffffffffffffffffffffffff166001600084815260200190815260200160002060010160009054906101000a905050508060016000848152602001908152602001600020600201819055505050565b6000806000806000806000871180156102dc57506000548711155b61031b576040517f08c379a000000000000000000000000000000000000000000000000000000000815260040161031290610ba0565b60405180910390fd5b6001600088815260200190815260200160002060000160009054906101000a900473ffffffffffffffffffffffffffffffffffffffff166001600089815260200190815260200160002060010160009054906101000a900473ffffffffffffffffffffffffffffffffffffffff16600160008a815260200190815260200160002060020154600160008b815260200190815260200160002060030154600160008c815260200190815260200160002060040154600160008d81526020019081526020016000206005015495509550955095509550955091939550919395565b60008054905090565b60016020528060005260406000206000915090508060000160009054906101000a900473ffffffffffffffffffffffffffffffffffffffff16908060010160009054906101000a900473ffffffffffffffffffffffffffffffffffffffff16908060020154908060030154908060040154908060050154905086565b60008081548092919061049190610bef565b91905055506040518060c001604052808373ffffffffffffffffffffffffffffffffffffffff1681526020013373ffffffffffffffffffffffffffffffffffffffff1681526020016064815260200162015180426104ef9190610c37565b815260200142815260200182815250600160008054815260200190815260200160002060008201518160000160006101000a81548173ffffffffffffffffffffffffffffffffffffffff021916908373ffffffffffffffffffffffffffffffffffffffff16021790555060208201518160010160006101000a81548173ffffffffffffffffffffffffffffffffffffffff021916908373ffffffffffffffffffffffffffffffffffffffff16021790555060408201518160020155606082015181600301556080820151816004015560a082015181600501559050503373ffffffffffffffffffffffffffffffffffffffff168273ffffffffffffffffffffffffffffffffffffffff167f21864ebc2d765e9740e60604e3a17e88cabefe875c70a76d7f244892dadaf7bc60005460405161062a91906109bb565b60405180910390a35050565b60005481565b60008042600160008581526020019081526020016000206003015410610697576040517f08c379a000000000000000000000000000000000000000000000000000000000815260040161068e90610cb7565b60405180910390fd5b6001600084815260200190815260200160002060010160009054906101000a900473ffffffffffffffffffffffffffffffffffffffff16600160008581526020019081526020016000206002015491509150915091565b42600160008481526020019081526020016000206003015411610746576040517f08c379a000000000000000000000000000000000000000000000000000000000815260040161073d90610ac8565b60405180910390fd5b8060016000848152602001908152602001600020600201541061079e576040517f08c379a000000000000000000000000000000000000000000000000000000000815260040161079590610b34565b60405180910390fd5b336001600084815260200190815260200160002060010160006101000a81548173ffffffffffffffffffffffffffffffffffffffff021916908373ffffffffffffffffffffffffffffffffffffffff1602179055508060016000848152602001908152602001600020600201819055503373ffffffffffffffffffffffffffffffffffffffff167f7136042fc8b502cb7b2f9c23ef190a14de582a02a0ffd89b1c399bb8dd8e6ad38383604051610856929190610cd7565b60405180910390a25050565b600080fd5b6000819050919050565b61087a81610867565b811461088557600080fd5b50565b60008135905061089781610871565b92915050565b600080604083850312156108b4576108b3610862565b5b60006108c285828601610888565b92505060206108d385828601610888565b9150509250929050565b6000602082840312156108f3576108f2610862565b5b600061090184828501610888565b91505092915050565b600073ffffffffffffffffffffffffffffffffffffffff82169050919050565b60006109358261090a565b9050919050565b6109458161092a565b82525050565b61095481610867565b82525050565b600060c08201905061096f600083018961093c565b61097c602083018861093c565b610989604083018761094b565b610996606083018661094b565b6109a3608083018561094b565b6109b060a083018461094b565b979650505050505050565b60006020820190506109d0600083018461094b565b92915050565b6109df8161092a565b81146109ea57600080fd5b50565b6000813590506109fc816109d6565b92915050565b60008060408385031215610a1957610a18610862565b5b6000610a27858286016109ed565b9250506020610a3885828601610888565b9150509250929050565b6000604082019050610a57600083018561093c565b610a64602083018461094b565b9392505050565b600082825260208201905092915050565b7f4269642068617320656e64656400000000000000000000000000000000000000600082015250565b6000610ab2600d83610a6b565b9150610abd82610a7c565b602082019050919050565b60006020820190508181036000830152610ae181610aa5565b9050919050565b7f42696420697320746f6f206c6f77000000000000000000000000000000000000600082015250565b6000610b1e600e83610a6b565b9150610b2982610ae8565b602082019050919050565b60006020820190508181036000830152610b4d81610b11565b9050919050565b7f42696420646f6573206e6f742065786973740000000000000000000000000000600082015250565b6000610b8a601283610a6b565b9150610b9582610b54565b602082019050919050565b60006020820190508181036000830152610bb981610b7d565b9050919050565b7f4e487b7100000000000000000000000000000000000000000000000000000000600052601160045260246000fd5b6000610bfa82610867565b91507fffffffffffffffffffffffffffffffffffffffffffffffffffffffffffffffff8203610c2c57610c2b610bc0565b5b600182019050919050565b6000610c4282610867565b9150610c4d83610867565b9250828201905080821115610c6557610c64610bc0565b5b92915050565b7f42696420686173206e6f7420656e646564000000000000000000000000000000600082015250565b6000610ca1601183610a6b565b9150610cac82610c6b565b602082019050919050565b60006020820190508181036000830152610cd081610c94565b9050919050565b6000604082019050610cec600083018561094b565b610cf9602083018461094b565b939250505056fea2646970667358221220e9fb64474c93eb918e8b4fef7f47b4b122514c40a794c4640dd25eee7de3ec5064736f6c634300081b0033",
  "linkReferences": {},
  "deployedLinkReferences": {}
}