{
  "_format": "hh-sol-artifact-1",
  "contractName": "ListNFT",
  "sourceName": "contracts/ListNFT.sol",
  "abi": [
    {
      "inputs": [],
      "stateMutability": "nonpayable",
      "type": "constructor"
    },
    {
      "anonymous": false,
      "inputs": [
        {
          "indexed": false,
          "internalType": "uint256",
          "name": "bidId",
          "type": "uint256"
        },
        {
          "indexed": true,
          "internalType": "address",
          "name": "nftAddress",
          "type": "address"
        },
        {
          "indexed": true,
          "internalType": "address",
          "name": "bidder",
          "type": "address"
        }
      ],
      "name": "BidCreated",
      "type": "event"
    },
    {
      "anonymous": false,
      "inputs": [
        {
          "indexed": false,
          "internalType": "uint256",
          "name": "bidId",
          "type": "uint256"
        },
        {
          "indexed": true,
          "internalType": "address",
          "name": "bidder",
          "type": "address"
        },
        {
          "indexed": false,
          "internalType": "uint256",
          "name": "amount",
          "type": "uint256"
        }
      ],
      "name": "NewBidPlaced",
      "type": "event"
    },
    {
      "inputs": [
        {
          "internalType": "uint256",
          "name": "_bidid",
          "type": "uint256"
        },
        {
          "internalType": "uint256",
          "name": "_amount",
          "type": "uint256"
        }
      ],
      "name": "bidForNft",
      "outputs": [],
      "stateMutability": "nonpayable",
      "type": "function"
    },
    {
      "inputs": [],
      "name": "bidid",
      "outputs": [
        {
          "internalType": "uint256",
          "name": "",
          "type": "uint256"
        }
      ],
      "stateMutability": "view",
      "type": "function"
    },
    {
      "inputs": [
        {
          "internalType": "uint256",
          "name": "",
          "type": "uint256"
        }
      ],
      "name": "bids",
      "outputs": [
        {
          "internalType": "address",
          "name": "thenft",
          "type": "address"
        },
        {
          "internalType": "address",
          "name": "maxbidder",
          "type": "address"
        },
        {
          "internalType": "uint256",
          "name": "amount",
          "type": "uint256"
        },
        {
          "internalType": "uint256",
          "name": "endtime",
          "type": "uint256"
        },
        {
          "internalType": "uint256",
          "name": "starttime",
          "type": "uint256"
        },
        {
          "internalType": "uint256",
          "name": "tokenId",
          "type": "uint256"
        }
      ],
      "stateMutability": "view",
      "type": "function"
    },
    {
      "inputs": [
        {
          "internalType": "address",
          "name": "_thenft",
          "type": "address"
        },
        {
          "internalType": "uint256",
          "name": "tokenId",
          "type": "uint256"
        }
      ],
      "name": "createBid",
      "outputs": [],
      "stateMutability": "nonpayable",
      "type": "function"
    },
    {
      "inputs": [],
      "name": "getBidCount",
      "outputs": [
        {
          "internalType": "uint256",
          "name": "",
          "type": "uint256"
        }
      ],
      "stateMutability": "view",
      "type": "function"
    },
    {
      "inputs": [
        {
          "internalType": "uint256",
          "name": "_bidid",
          "type": "uint256"
        }
      ],
      "name": "getBidInfo",
      "outputs": [
        {
          "internalType": "address",
          "name": "",
          "type": "address"
        },
        {
          "internalType": "address",
          "name": "",
          "type": "address"
        },
        {
          "internalType": "uint256",
          "name": "",
          "type": "uint256"
        },
        {
          "internalType": "uint256",
          "name": "",
          "type": "uint256"
        },
        {
          "internalType": "uint256",
          "name": "",
          "type": "uint256"
        },
        {
          "internalType": "uint256",
          "name": "",
          "type": "uint256"
        }
      ],
      "stateMutability": "view",
      "type": "function"
    }
  ],
  "bytecode": "0x60806040526000805534801561001457600080fd5b50600080815480929190610027906101b5565b91905055506040518060c00160405280732a3fedeb5c4aca4b8728d53eb8344d600de3664473ffffffffffffffffffffffffffffffffffffffff168152602001600173ffffffffffffffffffffffffffffffffffffffff16815260200160648152602001620151804261009a91906101fd565b81526020014281526020016000815250600160008054815260200190815260200160002060008201518160000160006101000a81548173ffffffffffffffffffffffffffffffffffffffff021916908373ffffffffffffffffffffffffffffffffffffffff16021790555060208201518160010160006101000a81548173ffffffffffffffffffffffffffffffffffffffff021916908373ffffffffffffffffffffffffffffffffffffffff16021790555060408201518160020155606082015181600301556080820151816004015560a08201518160050155905050610231565b7f4e487b7100000000000000000000000000000000000000000000000000000000600052601160045260246000fd5b6000819050919050565b60006101c0826101ab565b91507fffffffffffffffffffffffffffffffffffffffffffffffffffffffffffffffff82036101f2576101f161017c565b5b600182019050919050565b6000610208826101ab565b9150610213836101ab565b925082820190508082111561022b5761022a61017c565b5b92915050565b610a73806102406000396000f3fe608060405234801561001057600080fd5b50600436106100625760003560e01c80632201db311461006757806328f6a48a1461009c5780634423c5f1146100ba57806370a7eba9146100ef5780637e3abeb61461010b57806395018f7714610129575b600080fd5b610081600480360381019061007c919061066f565b610145565b604051610093969594939291906106ec565b60405180910390f35b6100a461027e565b6040516100b1919061074d565b60405180910390f35b6100d460048036038101906100cf919061066f565b610287565b6040516100e6969594939291906106ec565b60405180910390f35b61010960048036038101906101049190610794565b610303565b005b6101136104ba565b604051610120919061074d565b60405180910390f35b610143600480360381019061013e91906107d4565b6104c0565b005b60008060008060008060008711801561016057506000548711155b61019f576040517f08c379a000000000000000000000000000000000000000000000000000000000815260040161019690610871565b60405180910390fd5b6001600088815260200190815260200160002060000160009054906101000a900473ffffffffffffffffffffffffffffffffffffffff166001600089815260200190815260200160002060010160009054906101000a900473ffffffffffffffffffffffffffffffffffffffff16600160008a815260200190815260200160002060020154600160008b815260200190815260200160002060030154600160008c815260200190815260200160002060040154600160008d81526020019081526020016000206005015495509550955095509550955091939550919395565b60008054905090565b60016020528060005260406000206000915090508060000160009054906101000a900473ffffffffffffffffffffffffffffffffffffffff16908060010160009054906101000a900473ffffffffffffffffffffffffffffffffffffffff16908060020154908060030154908060040154908060050154905086565b600080815480929190610315906108c0565b91905055506040518060c001604052808373ffffffffffffffffffffffffffffffffffffffff1681526020013373ffffffffffffffffffffffffffffffffffffffff1681526020016000815260200162015180426103739190610908565b815260200142815260200182815250600160008054815260200190815260200160002060008201518160000160006101000a81548173ffffffffffffffffffffffffffffffffffffffff021916908373ffffffffffffffffffffffffffffffffffffffff16021790555060208201518160010160006101000a81548173ffffffffffffffffffffffffffffffffffffffff021916908373ffffffffffffffffffffffffffffffffffffffff16021790555060408201518160020155606082015181600301556080820151816004015560a082015181600501559050503373ffffffffffffffffffffffffffffffffffffffff168273ffffffffffffffffffffffffffffffffffffffff167f21864ebc2d765e9740e60604e3a17e88cabefe875c70a76d7f244892dadaf7bc6000546040516104ae919061074d565b60405180910390a35050565b60005481565b42600160008481526020019081526020016000206003015411610518576040517f08c379a000000000000000000000000000000000000000000000000000000000815260040161050f90610988565b60405180910390fd5b80600160008481526020019081526020016000206002015410610570576040517f08c379a0000000000000000000000000000000000000000000000000000000008152600401610567906109f4565b60405180910390fd5b336001600084815260200190815260200160002060010160006101000a81548173ffffffffffffffffffffffffffffffffffffffff021916908373ffffffffffffffffffffffffffffffffffffffff1602179055508060016000848152602001908152602001600020600201819055503373ffffffffffffffffffffffffffffffffffffffff167f7136042fc8b502cb7b2f9c23ef190a14de582a02a0ffd89b1c399bb8dd8e6ad38383604051610628929190610a14565b60405180910390a25050565b600080fd5b6000819050919050565b61064c81610639565b811461065757600080fd5b50565b60008135905061066981610643565b92915050565b60006020828403121561068557610684610634565b5b60006106938482850161065a565b91505092915050565b600073ffffffffffffffffffffffffffffffffffffffff82169050919050565b60006106c78261069c565b9050919050565b6106d7816106bc565b82525050565b6106e681610639565b82525050565b600060c08201905061070160008301896106ce565b61070e60208301886106ce565b61071b60408301876106dd565b61072860608301866106dd565b61073560808301856106dd565b61074260a08301846106dd565b979650505050505050565b600060208201905061076260008301846106dd565b92915050565b610771816106bc565b811461077c57600080fd5b50565b60008135905061078e81610768565b92915050565b600080604083850312156107ab576107aa610634565b5b60006107b98582860161077f565b92505060206107ca8582860161065a565b9150509250929050565b600080604083850312156107eb576107ea610634565b5b60006107f98582860161065a565b925050602061080a8582860161065a565b9150509250929050565b600082825260208201905092915050565b7f42696420646f6573206e6f742065786973740000000000000000000000000000600082015250565b600061085b601283610814565b915061086682610825565b602082019050919050565b6000602082019050818103600083015261088a8161084e565b9050919050565b7f4e487b7100000000000000000000000000000000000000000000000000000000600052601160045260246000fd5b60006108cb82610639565b91507fffffffffffffffffffffffffffffffffffffffffffffffffffffffffffffffff82036108fd576108fc610891565b5b600182019050919050565b600061091382610639565b915061091e83610639565b925082820190508082111561093657610935610891565b5b92915050565b7f4269642068617320656e64656400000000000000000000000000000000000000600082015250565b6000610972600d83610814565b915061097d8261093c565b602082019050919050565b600060208201905081810360008301526109a181610965565b9050919050565b7f42696420697320746f6f206c6f77000000000000000000000000000000000000600082015250565b60006109de600e83610814565b91506109e9826109a8565b602082019050919050565b60006020820190508181036000830152610a0d816109d1565b9050919050565b6000604082019050610a2960008301856106dd565b610a3660208301846106dd565b939250505056fea26469706673582212209678a2fee2dab2f1b7de7ed331d761269267cbd99398006008f4cf8eb5f7b91e64736f6c634300081b0033",
  "linkReferences": {},
  "deployedLinkReferences": {}
}