{
  "_format": "hh-sol-artifact-1",
  "contractName": "NFTWallet",
  "sourceName": "contracts/NFTWallet.sol",
  "abi": [
    {
      "inputs": [
        {
          "internalType": "address",
          "name": "_listNftAddress",
          "type": "address"
        }
      ],
      "stateMutability": "nonpayable",
      "type": "constructor"
    },
    {
      "anonymous": false,
      "inputs": [
        {
          "indexed": true,
          "internalType": "address",
          "name": "sender",
          "type": "address"
        },
        {
          "indexed": true,
          "internalType": "address",
          "name": "nftContract",
          "type": "address"
        },
        {
          "indexed": false,
          "internalType": "uint256",
          "name": "tokenId",
          "type": "uint256"
        }
      ],
      "name": "NFTReceived",
      "type": "event"
    },
    {
      "inputs": [
        {
          "internalType": "address",
          "name": "nftContract",
          "type": "address"
        },
        {
          "internalType": "uint256",
          "name": "tokenId",
          "type": "uint256"
        }
      ],
      "name": "BidFinished",
      "outputs": [],
      "stateMutability": "nonpayable",
      "type": "function"
    },
    {
      "inputs": [
        {
          "internalType": "address",
          "name": "owner",
          "type": "address"
        },
        {
          "internalType": "address",
          "name": "newOwner",
          "type": "address"
        },
        {
          "internalType": "address",
          "name": "contractAddress",
          "type": "address"
        },
        {
          "internalType": "uint256",
          "name": "tokenId",
          "type": "uint256"
        }
      ],
      "name": "changeOwner",
      "outputs": [],
      "stateMutability": "nonpayable",
      "type": "function"
    },
    {
      "inputs": [],
      "name": "data",
      "outputs": [
        {
          "internalType": "uint256",
          "name": "",
          "type": "uint256"
        }
      ],
      "stateMutability": "view",
      "type": "function"
    },
    {
      "inputs": [],
      "name": "dataaleasa",
      "outputs": [
        {
          "internalType": "uint256",
          "name": "",
          "type": "uint256"
        }
      ],
      "stateMutability": "view",
      "type": "function"
    },
    {
      "inputs": [
        {
          "internalType": "address",
          "name": "owner",
          "type": "address"
        }
      ],
      "name": "getNFTs",
      "outputs": [
        {
          "internalType": "address[]",
          "name": "contracts",
          "type": "address[]"
        },
        {
          "internalType": "uint256[][]",
          "name": "ids",
          "type": "uint256[][]"
        }
      ],
      "stateMutability": "view",
      "type": "function"
    },
    {
      "inputs": [],
      "name": "listNftContract",
      "outputs": [
        {
          "internalType": "contract ListNFT",
          "name": "",
          "type": "address"
        }
      ],
      "stateMutability": "view",
      "type": "function"
    },
    {
      "inputs": [
        {
          "internalType": "address",
          "name": "operator",
          "type": "address"
        },
        {
          "internalType": "address",
          "name": "from",
          "type": "address"
        },
        {
          "internalType": "uint256",
          "name": "tokenId",
          "type": "uint256"
        },
        {
          "internalType": "bytes",
          "name": "data",
          "type": "bytes"
        }
      ],
      "name": "onERC721Received",
      "outputs": [
        {
          "internalType": "bytes4",
          "name": "",
          "type": "bytes4"
        }
      ],
      "stateMutability": "nonpayable",
      "type": "function"
    },
    {
      "inputs": [],
      "name": "setDataa",
      "outputs": [],
      "stateMutability": "nonpayable",
      "type": "function"
    },
    {
      "inputs": [],
      "name": "setDatab",
      "outputs": [],
      "stateMutability": "nonpayable",
      "type": "function"
    },
    {
      "inputs": [],
      "name": "setDatac",
      "outputs": [],
      "stateMutability": "nonpayable",
      "type": "function"
    },
    {
      "inputs": [],
      "name": "setDatad",
      "outputs": [],
      "stateMutability": "nonpayable",
      "type": "function"
    },
    {
      "inputs": [
        {
          "internalType": "address",
          "name": "owner",
          "type": "address"
        },
        {
          "internalType": "address",
          "name": "nftContract",
          "type": "address"
        },
        {
          "internalType": "uint256",
          "name": "id",
          "type": "uint256"
        }
      ],
      "name": "withdrawNFT",
      "outputs": [],
      "stateMutability": "nonpayable",
      "type": "function"
    }
  ],
  "bytecode": "0x6080604052600160025534801561001557600080fd5b50604051611cc5380380611cc5833981810160405281019061003791906100e1565b80600160006101000a81548173ffffffffffffffffffffffffffffffffffffffff021916908373ffffffffffffffffffffffffffffffffffffffff1602179055505061010e565b600080fd5b600073ffffffffffffffffffffffffffffffffffffffff82169050919050565b60006100ae82610083565b9050919050565b6100be816100a3565b81146100c957600080fd5b50565b6000815190506100db816100b5565b92915050565b6000602082840312156100f7576100f661007e565b5b6000610105848285016100cc565b91505092915050565b611ba88061011d6000396000f3fe608060405234801561001057600080fd5b50600436106100b45760003560e01c80636097c0c7116100715780636097c0c71461015557806373d4a13a1461015f57806382183fb01461017d5780639190b3c5146101ae578063b61cf15e146101b8578063bff863ec146101d4576100b4565b806304fc3d5c146100b957806305454e70146100d7578063150b7a02146100e157806334973a6314610111578063489afd791461012d578063537997de14610137575b600080fd5b6100c16101f0565b6040516100ce9190611209565b60405180910390f35b6100df6101f6565b005b6100fb60048036038101906100f6919061131d565b6101ff565b60405161010891906113e0565b60405180910390f35b61012b600480360381019061012691906113fb565b6104d0565b005b610135610936565b005b61013f610940565b60405161014c91906114c1565b60405180910390f35b61015d610966565b005b610167610970565b6040516101749190611209565b60405180910390f35b610197600480360381019061019291906114dc565b61097a565b6040516101a5929190611747565b60405180910390f35b6101b6610d8e565b005b6101d260048036038101906101cd919061177e565b610d98565b005b6101ee60048036038101906101e991906117be565b610e36565b005b60025481565b60028081905550565b6000806000808773ffffffffffffffffffffffffffffffffffffffff1673ffffffffffffffffffffffffffffffffffffffff168152602001908152602001600020905060008160000160003373ffffffffffffffffffffffffffffffffffffffff1673ffffffffffffffffffffffffffffffffffffffff16815260200190815260200160002060000180549050036102f75780600101339080600181540180825580915050600190039060005260206000200160009091909190916101000a81548173ffffffffffffffffffffffffffffffffffffffff021916908373ffffffffffffffffffffffffffffffffffffffff1602179055505b8060000160003373ffffffffffffffffffffffffffffffffffffffff1673ffffffffffffffffffffffffffffffffffffffff16815260200190815260200160002060000185908060018154018082558091505060019003906000526020600020016000909190919091505560008160000160003373ffffffffffffffffffffffffffffffffffffffff1673ffffffffffffffffffffffffffffffffffffffff16815260200190815260200160002060010160006101000a81548160ff0219169083151502179055508573ffffffffffffffffffffffffffffffffffffffff163373ffffffffffffffffffffffffffffffffffffffff167ff45de2a4efbdd3cb1d3639c28f1798f2e4c60ff4cd9031fd2097ef76aebc15368760405161041c9190611209565b60405180910390a3600160009054906101000a900473ffffffffffffffffffffffffffffffffffffffff1673ffffffffffffffffffffffffffffffffffffffff1663f52fb916338760006002548b6040518663ffffffff1660e01b815260040161048a95949392919061185b565b600060405180830381600087803b1580156104a457600080fd5b505af11580156104b8573d6000803e3d6000fd5b5050505063150b7a0260e01b91505095945050505050565b60008060008673ffffffffffffffffffffffffffffffffffffffff1673ffffffffffffffffffffffffffffffffffffffff1681526020019081526020016000206001018054905011610557576040517f08c379a000000000000000000000000000000000000000000000000000000000815260040161054e9061190b565b60405180910390fd5b60008060008673ffffffffffffffffffffffffffffffffffffffff1673ffffffffffffffffffffffffffffffffffffffff168152602001908152602001600020905060008060008673ffffffffffffffffffffffffffffffffffffffff1673ffffffffffffffffffffffffffffffffffffffff16815260200190815260200160002090508060000160008573ffffffffffffffffffffffffffffffffffffffff1673ffffffffffffffffffffffffffffffffffffffff16815260200190815260200160002060000183908060018154018082558091505060019003906000526020600020016000909190919091505560008260000160008673ffffffffffffffffffffffffffffffffffffffff1673ffffffffffffffffffffffffffffffffffffffff168152602001908152602001600020600001905060005b818054905081101561074957848282815481106106b1576106b061192b565b5b90600052602060002001540361073c5781600183805490506106d39190611989565b815481106106e4576106e361192b565b5b90600052602060002001548282815481106107025761070161192b565b5b906000526020600020018190555081805480610721576107206119bd565b5b60019003818190600052602060002001600090559055610749565b8080600101915050610691565b5060008360000160008773ffffffffffffffffffffffffffffffffffffffff1673ffffffffffffffffffffffffffffffffffffffff168152602001908152602001600020600001805490500361092d5760005b836001018054905081101561092b578573ffffffffffffffffffffffffffffffffffffffff168460010182815481106107d8576107d761192b565b5b9060005260206000200160009054906101000a900473ffffffffffffffffffffffffffffffffffffffff1673ffffffffffffffffffffffffffffffffffffffff160361091e5783600101600185600101805490506108369190611989565b815481106108475761084661192b565b5b9060005260206000200160009054906101000a900473ffffffffffffffffffffffffffffffffffffffff168460010182815481106108885761088761192b565b5b9060005260206000200160006101000a81548173ffffffffffffffffffffffffffffffffffffffff021916908373ffffffffffffffffffffffffffffffffffffffff160217905550836001018054806108e4576108e36119bd565b5b6001900381819060005260206000200160006101000a81549073ffffffffffffffffffffffffffffffffffffffff0219169055905561092b565b808060010191505061079c565b505b50505050505050565b6001600281905550565b600160009054906101000a900473ffffffffffffffffffffffffffffffffffffffff1681565b6003600281905550565b6000600254905090565b60608060008060008573ffffffffffffffffffffffffffffffffffffffff1673ffffffffffffffffffffffffffffffffffffffff168152602001908152602001600020905060008160010180549050905060008167ffffffffffffffff8111156109e7576109e66119ec565b5b604051908082528060200260200182016040528015610a155781602001602082028036833780820191505090505b50905060008267ffffffffffffffff811115610a3457610a336119ec565b5b604051908082528060200260200182016040528015610a6757816020015b6060815260200190600190039081610a525790505b5090506000805b84811015610c2e576000866001018281548110610a8e57610a8d61192b565b5b9060005260206000200160009054906101000a900473ffffffffffffffffffffffffffffffffffffffff1690508660000160008273ffffffffffffffffffffffffffffffffffffffff1673ffffffffffffffffffffffffffffffffffffffff16815260200190815260200160002060010160009054906101000a900460ff1615610c205780858481518110610b2657610b2561192b565b5b602002602001019073ffffffffffffffffffffffffffffffffffffffff16908173ffffffffffffffffffffffffffffffffffffffff16815250508660000160008273ffffffffffffffffffffffffffffffffffffffff1673ffffffffffffffffffffffffffffffffffffffff168152602001908152602001600020600001805480602002602001604051908101604052809291908181526020018280548015610bee57602002820191906000526020600020905b815481526020019060010190808311610bda575b5050505050848481518110610c0657610c0561192b565b5b60200260200101819052508280610c1c90611a1b565b9350505b508080600101915050610a6e565b508067ffffffffffffffff811115610c4957610c486119ec565b5b604051908082528060200260200182016040528015610c775781602001602082028036833780820191505090505b5096508067ffffffffffffffff811115610c9457610c936119ec565b5b604051908082528060200260200182016040528015610cc757816020015b6060815260200190600190039081610cb25790505b50955060005b81811015610d8357838181518110610ce857610ce761192b565b5b6020026020010151888281518110610d0357610d0261192b565b5b602002602001019073ffffffffffffffffffffffffffffffffffffffff16908173ffffffffffffffffffffffffffffffffffffffff1681525050828181518110610d5057610d4f61192b565b5b6020026020010151878281518110610d6b57610d6a61192b565b5b60200260200101819052508080600101915050610ccd565b505050505050915091565b6004600281905550565b60016000803373ffffffffffffffffffffffffffffffffffffffff1673ffffffffffffffffffffffffffffffffffffffff16815260200190815260200160002060000160008473ffffffffffffffffffffffffffffffffffffffff1673ffffffffffffffffffffffffffffffffffffffff16815260200190815260200160002060010160006101000a81548160ff0219169083151502179055505050565b6000808473ffffffffffffffffffffffffffffffffffffffff1673ffffffffffffffffffffffffffffffffffffffff16815260200190815260200160002060000160008373ffffffffffffffffffffffffffffffffffffffff1673ffffffffffffffffffffffffffffffffffffffff16815260200190815260200160002060010160009054906101000a900460ff16610f04576040517f08c379a0000000000000000000000000000000000000000000000000000000008152600401610efb90611aaf565b60405180910390fd5b60008060008573ffffffffffffffffffffffffffffffffffffffff1673ffffffffffffffffffffffffffffffffffffffff16815260200190815260200160002060000160008473ffffffffffffffffffffffffffffffffffffffff1673ffffffffffffffffffffffffffffffffffffffff16815260200190815260200160002060000190506000805b82805490508110156110b85783838281548110610fad57610fac61192b565b5b9060005260206000200154036110ab57600191508473ffffffffffffffffffffffffffffffffffffffff166342842e0e3088876040518463ffffffff1660e01b8152600401610ffe93929190611acf565b600060405180830381600087803b15801561101857600080fd5b505af115801561102c573d6000803e3d6000fd5b5050505082600184805490506110429190611989565b815481106110535761105261192b565b5b90600052602060002001548382815481106110715761107061192b565b5b9060005260206000200181905550828054806110905761108f6119bd565b5b600190038181906000526020600020016000905590556110b8565b8080600101915050610f8d565b50806110f9576040517f08c379a00000000000000000000000000000000000000000000000000000000081526004016110f090611b52565b60405180910390fd5b60008280549050036111ab576000808673ffffffffffffffffffffffffffffffffffffffff1673ffffffffffffffffffffffffffffffffffffffff16815260200190815260200160002060000160008573ffffffffffffffffffffffffffffffffffffffff1673ffffffffffffffffffffffffffffffffffffffff1681526020019081526020016000206000808201600061119491906111b2565b6001820160006101000a81549060ff021916905550505b5050505050565b50805460008255906000526020600020908101906111d091906111d3565b50565b5b808211156111ec5760008160009055506001016111d4565b5090565b6000819050919050565b611203816111f0565b82525050565b600060208201905061121e60008301846111fa565b92915050565b600080fd5b600080fd5b600073ffffffffffffffffffffffffffffffffffffffff82169050919050565b60006112598261122e565b9050919050565b6112698161124e565b811461127457600080fd5b50565b60008135905061128681611260565b92915050565b611295816111f0565b81146112a057600080fd5b50565b6000813590506112b28161128c565b92915050565b600080fd5b600080fd5b600080fd5b60008083601f8401126112dd576112dc6112b8565b5b8235905067ffffffffffffffff8111156112fa576112f96112bd565b5b602083019150836001820283011115611316576113156112c2565b5b9250929050565b60008060008060006080868803121561133957611338611224565b5b600061134788828901611277565b955050602061135888828901611277565b9450506040611369888289016112a3565b935050606086013567ffffffffffffffff81111561138a57611389611229565b5b611396888289016112c7565b92509250509295509295909350565b60007fffffffff0000000000000000000000000000000000000000000000000000000082169050919050565b6113da816113a5565b82525050565b60006020820190506113f560008301846113d1565b92915050565b6000806000806080858703121561141557611414611224565b5b600061142387828801611277565b945050602061143487828801611277565b935050604061144587828801611277565b9250506060611456878288016112a3565b91505092959194509250565b6000819050919050565b600061148761148261147d8461122e565b611462565b61122e565b9050919050565b60006114998261146c565b9050919050565b60006114ab8261148e565b9050919050565b6114bb816114a0565b82525050565b60006020820190506114d660008301846114b2565b92915050565b6000602082840312156114f2576114f1611224565b5b600061150084828501611277565b91505092915050565b600081519050919050565b600082825260208201905092915050565b6000819050602082019050919050565b61153e8161124e565b82525050565b60006115508383611535565b60208301905092915050565b6000602082019050919050565b600061157482611509565b61157e8185611514565b935061158983611525565b8060005b838110156115ba5781516115a18882611544565b97506115ac8361155c565b92505060018101905061158d565b5085935050505092915050565b600081519050919050565b600082825260208201905092915050565b6000819050602082019050919050565b600081519050919050565b600082825260208201905092915050565b6000819050602082019050919050565b611628816111f0565b82525050565b600061163a838361161f565b60208301905092915050565b6000602082019050919050565b600061165e826115f3565b61166881856115fe565b93506116738361160f565b8060005b838110156116a457815161168b888261162e565b975061169683611646565b925050600181019050611677565b5085935050505092915050565b60006116bd8383611653565b905092915050565b6000602082019050919050565b60006116dd826115c7565b6116e781856115d2565b9350836020820285016116f9856115e3565b8060005b85811015611735578484038952815161171685826116b1565b9450611721836116c5565b925060208a019950506001810190506116fd565b50829750879550505050505092915050565b600060408201905081810360008301526117618185611569565b9050818103602083015261177581846116d2565b90509392505050565b6000806040838503121561179557611794611224565b5b60006117a385828601611277565b92505060206117b4858286016112a3565b9150509250929050565b6000806000606084860312156117d7576117d6611224565b5b60006117e586828701611277565b93505060206117f686828701611277565b9250506040611807868287016112a3565b9150509250925092565b61181a8161124e565b82525050565b6000819050919050565b600061184561184061183b84611820565b611462565b6111f0565b9050919050565b6118558161182a565b82525050565b600060a0820190506118706000830188611811565b61187d60208301876111fa565b61188a604083018661184c565b61189760608301856111fa565b6118a46080830184611811565b9695505050505050565b600082825260208201905092915050565b7f4e6f204e46547320746f207472616e7366657200000000000000000000000000600082015250565b60006118f56013836118ae565b9150611900826118bf565b602082019050919050565b60006020820190508181036000830152611924816118e8565b9050919050565b7f4e487b7100000000000000000000000000000000000000000000000000000000600052603260045260246000fd5b7f4e487b7100000000000000000000000000000000000000000000000000000000600052601160045260246000fd5b6000611994826111f0565b915061199f836111f0565b92508282039050818111156119b7576119b661195a565b5b92915050565b7f4e487b7100000000000000000000000000000000000000000000000000000000600052603160045260246000fd5b7f4e487b7100000000000000000000000000000000000000000000000000000000600052604160045260246000fd5b6000611a26826111f0565b91507fffffffffffffffffffffffffffffffffffffffffffffffffffffffffffffffff8203611a5857611a5761195a565b5b600182019050919050565b7f4e4654206973206e6f7420617661696c61626c65000000000000000000000000600082015250565b6000611a996014836118ae565b9150611aa482611a63565b602082019050919050565b60006020820190508181036000830152611ac881611a8c565b9050919050565b6000606082019050611ae46000830186611811565b611af16020830185611811565b611afe60408301846111fa565b949350505050565b7f4e4654204944206e6f7420666f756e6400000000000000000000000000000000600082015250565b6000611b3c6010836118ae565b9150611b4782611b06565b602082019050919050565b60006020820190508181036000830152611b6b81611b2f565b905091905056fea2646970667358221220eed7a8c6201c981f260679ac6578d5979e61331b1a84c5f852cb74a6f04bf38a64736f6c634300081b0033",
  "linkReferences": {},
  "deployedLinkReferences": {}
}