{
  "_format": "hh-sol-artifact-1",
  "contractName": "NFTWallet",
  "sourceName": "contracts/NFTWallet.sol",
  "abi": [
    {
      "inputs": [
        {
          "internalType": "address",
          "name": "_listNftAddress",
          "type": "address"
        }
      ],
      "stateMutability": "nonpayable",
      "type": "constructor"
    },
    {
      "anonymous": false,
      "inputs": [
        {
          "indexed": true,
          "internalType": "address",
          "name": "sender",
          "type": "address"
        },
        {
          "indexed": true,
          "internalType": "address",
          "name": "nftContract",
          "type": "address"
        },
        {
          "indexed": false,
          "internalType": "uint256",
          "name": "tokenId",
          "type": "uint256"
        }
      ],
      "name": "NFTReceived",
      "type": "event"
    },
    {
      "inputs": [
        {
          "internalType": "address",
          "name": "nftContract",
          "type": "address"
        },
        {
          "internalType": "uint256",
          "name": "tokenId",
          "type": "uint256"
        }
      ],
      "name": "BidFinished",
      "outputs": [],
      "stateMutability": "nonpayable",
      "type": "function"
    },
    {
      "inputs": [
        {
          "internalType": "address",
          "name": "owner",
          "type": "address"
        },
        {
          "internalType": "address",
          "name": "newOwner",
          "type": "address"
        }
      ],
      "name": "changeowner",
      "outputs": [],
      "stateMutability": "nonpayable",
      "type": "function"
    },
    {
      "inputs": [
        {
          "internalType": "address",
          "name": "owner",
          "type": "address"
        }
      ],
      "name": "getNFTs",
      "outputs": [
        {
          "internalType": "address[]",
          "name": "contracts",
          "type": "address[]"
        },
        {
          "internalType": "uint256[][]",
          "name": "ids",
          "type": "uint256[][]"
        }
      ],
      "stateMutability": "view",
      "type": "function"
    },
    {
      "inputs": [],
      "name": "listNftContract",
      "outputs": [
        {
          "internalType": "contract ListNFT",
          "name": "",
          "type": "address"
        }
      ],
      "stateMutability": "view",
      "type": "function"
    },
    {
      "inputs": [
        {
          "internalType": "address",
          "name": "operator",
          "type": "address"
        },
        {
          "internalType": "address",
          "name": "from",
          "type": "address"
        },
        {
          "internalType": "uint256",
          "name": "tokenId",
          "type": "uint256"
        },
        {
          "internalType": "bytes",
          "name": "data",
          "type": "bytes"
        }
      ],
      "name": "onERC721Received",
      "outputs": [
        {
          "internalType": "bytes4",
          "name": "",
          "type": "bytes4"
        }
      ],
      "stateMutability": "nonpayable",
      "type": "function"
    },
    {
      "inputs": [
        {
          "internalType": "address",
          "name": "owner",
          "type": "address"
        },
        {
          "internalType": "address",
          "name": "nftContract",
          "type": "address"
        },
        {
          "internalType": "uint256",
          "name": "id",
          "type": "uint256"
        }
      ],
      "name": "withdrawNFT",
      "outputs": [],
      "stateMutability": "nonpayable",
      "type": "function"
    }
  ],
  "bytecode": "0x608060405234801561001057600080fd5b506040516117e63803806117e6833981810160405281019061003291906100dc565b80600160006101000a81548173ffffffffffffffffffffffffffffffffffffffff021916908373ffffffffffffffffffffffffffffffffffffffff16021790555050610109565b600080fd5b600073ffffffffffffffffffffffffffffffffffffffff82169050919050565b60006100a98261007e565b9050919050565b6100b98161009e565b81146100c457600080fd5b50565b6000815190506100d6816100b0565b92915050565b6000602082840312156100f2576100f1610079565b5b6000610100848285016100c7565b91505092915050565b6116ce806101186000396000f3fe608060405234801561001057600080fd5b50600436106100625760003560e01c8063150b7a0214610067578063537997de1461009757806382183fb0146100b5578063b61cf15e146100e6578063bff863ec14610102578063c0f681571461011e575b600080fd5b610081600480360381019061007c9190610eed565b61013a565b60405161008e9190610fb0565b60405180910390f35b61009f610402565b6040516100ac919061102a565b60405180910390f35b6100cf60048036038101906100ca9190611045565b610428565b6040516100dd9291906112b0565b60405180910390f35b61010060048036038101906100fb91906112e7565b61068d565b005b61011c60048036038101906101179190611327565b61072b565b005b6101386004803603810190610133919061137a565b610aa7565b005b6000806000808773ffffffffffffffffffffffffffffffffffffffff1673ffffffffffffffffffffffffffffffffffffffff168152602001908152602001600020905060008160000160003373ffffffffffffffffffffffffffffffffffffffff1673ffffffffffffffffffffffffffffffffffffffff16815260200190815260200160002060000180549050036102325780600101339080600181540180825580915050600190039060005260206000200160009091909190916101000a81548173ffffffffffffffffffffffffffffffffffffffff021916908373ffffffffffffffffffffffffffffffffffffffff1602179055505b8060000160003373ffffffffffffffffffffffffffffffffffffffff1673ffffffffffffffffffffffffffffffffffffffff16815260200190815260200160002060000185908060018154018082558091505060019003906000526020600020016000909190919091505560018160000160003373ffffffffffffffffffffffffffffffffffffffff1673ffffffffffffffffffffffffffffffffffffffff16815260200190815260200160002060010160006101000a81548160ff0219169083151502179055503373ffffffffffffffffffffffffffffffffffffffff168673ffffffffffffffffffffffffffffffffffffffff167ff45de2a4efbdd3cb1d3639c28f1798f2e4c60ff4cd9031fd2097ef76aebc15368760405161035791906113c9565b60405180910390a3600160009054906101000a900473ffffffffffffffffffffffffffffffffffffffff1673ffffffffffffffffffffffffffffffffffffffff166370a7eba933876040518363ffffffff1660e01b81526004016103bc9291906113f3565b600060405180830381600087803b1580156103d657600080fd5b505af11580156103ea573d6000803e3d6000fd5b5050505063150b7a0260e01b91505095945050505050565b600160009054906101000a900473ffffffffffffffffffffffffffffffffffffffff1681565b60608060008060008573ffffffffffffffffffffffffffffffffffffffff1673ffffffffffffffffffffffffffffffffffffffff16815260200190815260200160002090506000816001018054905090508067ffffffffffffffff8111156104935761049261141c565b5b6040519080825280602002602001820160405280156104c15781602001602082028036833780820191505090505b5093508067ffffffffffffffff8111156104de576104dd61141c565b5b60405190808252806020026020018201604052801561051157816020015b60608152602001906001900390816104fc5790505b50925060005b81811015610685578260010181815481106105355761053461144b565b5b9060005260206000200160009054906101000a900473ffffffffffffffffffffffffffffffffffffffff168582815181106105735761057261144b565b5b602002602001019073ffffffffffffffffffffffffffffffffffffffff16908173ffffffffffffffffffffffffffffffffffffffff16815250508260000160008683815181106105c6576105c561144b565b5b602002602001015173ffffffffffffffffffffffffffffffffffffffff1673ffffffffffffffffffffffffffffffffffffffff16815260200190815260200160002060000180548060200260200160405190810160405280929190818152602001828054801561065557602002820191906000526020600020905b815481526020019060010190808311610641575b505050505084828151811061066d5761066c61144b565b5b60200260200101819052508080600101915050610517565b505050915091565b60016000803373ffffffffffffffffffffffffffffffffffffffff1673ffffffffffffffffffffffffffffffffffffffff16815260200190815260200160002060000160008473ffffffffffffffffffffffffffffffffffffffff1673ffffffffffffffffffffffffffffffffffffffff16815260200190815260200160002060010160006101000a81548160ff0219169083151502179055505050565b6000808473ffffffffffffffffffffffffffffffffffffffff1673ffffffffffffffffffffffffffffffffffffffff16815260200190815260200160002060000160008373ffffffffffffffffffffffffffffffffffffffff1673ffffffffffffffffffffffffffffffffffffffff16815260200190815260200160002060010160009054906101000a900460ff166107f9576040517f08c379a00000000000000000000000000000000000000000000000000000000081526004016107f0906114d7565b60405180910390fd5b60008060008573ffffffffffffffffffffffffffffffffffffffff1673ffffffffffffffffffffffffffffffffffffffff16815260200190815260200160002060000160008473ffffffffffffffffffffffffffffffffffffffff1673ffffffffffffffffffffffffffffffffffffffff16815260200190815260200160002060000190506000805b82805490508110156109ad57838382815481106108a2576108a161144b565b5b9060005260206000200154036109a057600191508473ffffffffffffffffffffffffffffffffffffffff166342842e0e8733876040518463ffffffff1660e01b81526004016108f3939291906114f7565b600060405180830381600087803b15801561090d57600080fd5b505af1158015610921573d6000803e3d6000fd5b505050508260018480549050610937919061155d565b815481106109485761094761144b565b5b90600052602060002001548382815481106109665761096561144b565b5b90600052602060002001819055508280548061098557610984611591565b5b600190038181906000526020600020016000905590556109ad565b8080600101915050610882565b50806109ee576040517f08c379a00000000000000000000000000000000000000000000000000000000081526004016109e59061160c565b60405180910390fd5b6000828054905003610aa0576000808673ffffffffffffffffffffffffffffffffffffffff1673ffffffffffffffffffffffffffffffffffffffff16815260200190815260200160002060000160008573ffffffffffffffffffffffffffffffffffffffff1673ffffffffffffffffffffffffffffffffffffffff16815260200190815260200160002060008082016000610a899190610d39565b6001820160006101000a81549060ff021916905550505b5050505050565b60008060008473ffffffffffffffffffffffffffffffffffffffff1673ffffffffffffffffffffffffffffffffffffffff1681526020019081526020016000206001018054905011610b2e576040517f08c379a0000000000000000000000000000000000000000000000000000000008152600401610b2590611678565b60405180910390fd5b60008060008473ffffffffffffffffffffffffffffffffffffffff1673ffffffffffffffffffffffffffffffffffffffff168152602001908152602001600020905060008060008473ffffffffffffffffffffffffffffffffffffffff1673ffffffffffffffffffffffffffffffffffffffff168152602001908152602001600020905060005b8260010180549050811015610ce0576000836001018281548110610bdc57610bdb61144b565b5b9060005260206000200160009054906101000a900473ffffffffffffffffffffffffffffffffffffffff1690508360000160008273ffffffffffffffffffffffffffffffffffffffff1673ffffffffffffffffffffffffffffffffffffffff1681526020019081526020016000208360000160008373ffffffffffffffffffffffffffffffffffffffff1673ffffffffffffffffffffffffffffffffffffffff1681526020019081526020016000206000820181600001908054610ca1929190610d5a565b506001820160009054906101000a900460ff168160010160006101000a81548160ff021916908315150217905550905050508080600101915050610bb5565b506000808573ffffffffffffffffffffffffffffffffffffffff1673ffffffffffffffffffffffffffffffffffffffff1681526020019081526020016000206000600182016000610d319190610dac565b505050505050565b5080546000825590600052602060002090810190610d579190610dcd565b50565b828054828255906000526020600020908101928215610d9b5760005260206000209182015b82811115610d9a578254825591600101919060010190610d7f565b5b509050610da89190610dcd565b5090565b5080546000825590600052602060002090810190610dca9190610dcd565b50565b5b80821115610de6576000816000905550600101610dce565b5090565b600080fd5b600080fd5b600073ffffffffffffffffffffffffffffffffffffffff82169050919050565b6000610e1f82610df4565b9050919050565b610e2f81610e14565b8114610e3a57600080fd5b50565b600081359050610e4c81610e26565b92915050565b6000819050919050565b610e6581610e52565b8114610e7057600080fd5b50565b600081359050610e8281610e5c565b92915050565b600080fd5b600080fd5b600080fd5b60008083601f840112610ead57610eac610e88565b5b8235905067ffffffffffffffff811115610eca57610ec9610e8d565b5b602083019150836001820283011115610ee657610ee5610e92565b5b9250929050565b600080600080600060808688031215610f0957610f08610dea565b5b6000610f1788828901610e3d565b9550506020610f2888828901610e3d565b9450506040610f3988828901610e73565b935050606086013567ffffffffffffffff811115610f5a57610f59610def565b5b610f6688828901610e97565b92509250509295509295909350565b60007fffffffff0000000000000000000000000000000000000000000000000000000082169050919050565b610faa81610f75565b82525050565b6000602082019050610fc56000830184610fa1565b92915050565b6000819050919050565b6000610ff0610feb610fe684610df4565b610fcb565b610df4565b9050919050565b600061100282610fd5565b9050919050565b600061101482610ff7565b9050919050565b61102481611009565b82525050565b600060208201905061103f600083018461101b565b92915050565b60006020828403121561105b5761105a610dea565b5b600061106984828501610e3d565b91505092915050565b600081519050919050565b600082825260208201905092915050565b6000819050602082019050919050565b6110a781610e14565b82525050565b60006110b9838361109e565b60208301905092915050565b6000602082019050919050565b60006110dd82611072565b6110e7818561107d565b93506110f28361108e565b8060005b8381101561112357815161110a88826110ad565b9750611115836110c5565b9250506001810190506110f6565b5085935050505092915050565b600081519050919050565b600082825260208201905092915050565b6000819050602082019050919050565b600081519050919050565b600082825260208201905092915050565b6000819050602082019050919050565b61119181610e52565b82525050565b60006111a38383611188565b60208301905092915050565b6000602082019050919050565b60006111c78261115c565b6111d18185611167565b93506111dc83611178565b8060005b8381101561120d5781516111f48882611197565b97506111ff836111af565b9250506001810190506111e0565b5085935050505092915050565b600061122683836111bc565b905092915050565b6000602082019050919050565b600061124682611130565b611250818561113b565b9350836020820285016112628561114c565b8060005b8581101561129e578484038952815161127f858261121a565b945061128a8361122e565b925060208a01995050600181019050611266565b50829750879550505050505092915050565b600060408201905081810360008301526112ca81856110d2565b905081810360208301526112de818461123b565b90509392505050565b600080604083850312156112fe576112fd610dea565b5b600061130c85828601610e3d565b925050602061131d85828601610e73565b9150509250929050565b6000806000606084860312156113405761133f610dea565b5b600061134e86828701610e3d565b935050602061135f86828701610e3d565b925050604061137086828701610e73565b9150509250925092565b6000806040838503121561139157611390610dea565b5b600061139f85828601610e3d565b92505060206113b085828601610e3d565b9150509250929050565b6113c381610e52565b82525050565b60006020820190506113de60008301846113ba565b92915050565b6113ed81610e14565b82525050565b600060408201905061140860008301856113e4565b61141560208301846113ba565b9392505050565b7f4e487b7100000000000000000000000000000000000000000000000000000000600052604160045260246000fd5b7f4e487b7100000000000000000000000000000000000000000000000000000000600052603260045260246000fd5b600082825260208201905092915050565b7f4e4654206973206e6f7420617661696c61626c65000000000000000000000000600082015250565b60006114c160148361147a565b91506114cc8261148b565b602082019050919050565b600060208201905081810360008301526114f0816114b4565b9050919050565b600060608201905061150c60008301866113e4565b61151960208301856113e4565b61152660408301846113ba565b949350505050565b7f4e487b7100000000000000000000000000000000000000000000000000000000600052601160045260246000fd5b600061156882610e52565b915061157383610e52565b925082820390508181111561158b5761158a61152e565b5b92915050565b7f4e487b7100000000000000000000000000000000000000000000000000000000600052603160045260246000fd5b7f4e4654204944206e6f7420666f756e6400000000000000000000000000000000600082015250565b60006115f660108361147a565b9150611601826115c0565b602082019050919050565b60006020820190508181036000830152611625816115e9565b9050919050565b7f4e6f204e46547320746f207472616e7366657200000000000000000000000000600082015250565b600061166260138361147a565b915061166d8261162c565b602082019050919050565b6000602082019050818103600083015261169181611655565b905091905056fea2646970667358221220a37f3447ebb08d78a76ebccd6a432209bdad5c408a6568caa3a1b89dafbda8c864736f6c634300081b0033",
  "linkReferences": {},
  "deployedLinkReferences": {}
}