{
  "_format": "hh-sol-artifact-1",
  "contractName": "NFTWallet",
  "sourceName": "contracts/NFTWallet.sol",
  "abi": [
    {
      "inputs": [
        {
          "internalType": "address",
          "name": "_listNftAddress",
          "type": "address"
        }
      ],
      "stateMutability": "nonpayable",
      "type": "constructor"
    },
    {
      "anonymous": false,
      "inputs": [
        {
          "indexed": true,
          "internalType": "address",
          "name": "sender",
          "type": "address"
        },
        {
          "indexed": true,
          "internalType": "address",
          "name": "nftContract",
          "type": "address"
        },
        {
          "indexed": false,
          "internalType": "uint256",
          "name": "tokenId",
          "type": "uint256"
        }
      ],
      "name": "NFTReceived",
      "type": "event"
    },
    {
      "anonymous": false,
      "inputs": [
        {
          "indexed": true,
          "internalType": "address",
          "name": "from",
          "type": "address"
        },
        {
          "indexed": true,
          "internalType": "address",
          "name": "to",
          "type": "address"
        },
        {
          "indexed": true,
          "internalType": "address",
          "name": "nftContract",
          "type": "address"
        },
        {
          "indexed": false,
          "internalType": "uint256",
          "name": "tokenId",
          "type": "uint256"
        }
      ],
      "name": "NFTSent",
      "type": "event"
    },
    {
      "inputs": [
        {
          "internalType": "address",
          "name": "owner",
          "type": "address"
        }
      ],
      "name": "NFTUtilizator",
      "outputs": [
        {
          "internalType": "address",
          "name": "",
          "type": "address"
        },
        {
          "internalType": "uint256[]",
          "name": "",
          "type": "uint256[]"
        }
      ],
      "stateMutability": "view",
      "type": "function"
    },
    {
      "inputs": [],
      "name": "listNftContract",
      "outputs": [
        {
          "internalType": "contract ListNFT",
          "name": "",
          "type": "address"
        }
      ],
      "stateMutability": "view",
      "type": "function"
    },
    {
      "inputs": [
        {
          "internalType": "address",
          "name": "",
          "type": "address"
        }
      ],
      "name": "listNftOwner",
      "outputs": [
        {
          "internalType": "address",
          "name": "nftContract",
          "type": "address"
        },
        {
          "internalType": "bool",
          "name": "available",
          "type": "bool"
        }
      ],
      "stateMutability": "view",
      "type": "function"
    },
    {
      "inputs": [
        {
          "internalType": "address",
          "name": "operator",
          "type": "address"
        },
        {
          "internalType": "address",
          "name": "from",
          "type": "address"
        },
        {
          "internalType": "uint256",
          "name": "tokenId",
          "type": "uint256"
        },
        {
          "internalType": "bytes",
          "name": "data",
          "type": "bytes"
        }
      ],
      "name": "onERC721Received",
      "outputs": [
        {
          "internalType": "bytes4",
          "name": "",
          "type": "bytes4"
        }
      ],
      "stateMutability": "nonpayable",
      "type": "function"
    },
    {
      "inputs": [
        {
          "internalType": "address",
          "name": "nftContractAddress",
          "type": "address"
        },
        {
          "internalType": "uint256",
          "name": "tokenId",
          "type": "uint256"
        }
      ],
      "name": "sendNFT",
      "outputs": [],
      "stateMutability": "nonpayable",
      "type": "function"
    }
  ],
  "bytecode": "0x608060405234801561001057600080fd5b50604051610cb5380380610cb5833981810160405281019061003291906100dc565b80600160006101000a81548173ffffffffffffffffffffffffffffffffffffffff021916908373ffffffffffffffffffffffffffffffffffffffff16021790555050610109565b600080fd5b600073ffffffffffffffffffffffffffffffffffffffff82169050919050565b60006100a98261007e565b9050919050565b6100b98161009e565b81146100c457600080fd5b50565b6000815190506100d6816100b0565b92915050565b6000602082840312156100f2576100f1610079565b5b6000610100848285016100c7565b91505092915050565b610b9d806101186000396000f3fe608060405234801561001057600080fd5b50600436106100575760003560e01c8063150b7a021461005c5780631f7fd2ef1461008c578063537997de146100bd5780635e0b45dd146100db578063d67262e51461010c575b600080fd5b61007660048036038101906100719190610718565b610128565b60405161008391906107db565b60405180910390f35b6100a660048036038101906100a191906107f6565b6101a2565b6040516100b49291906108f0565b60405180910390f35b6100c561026d565b6040516100d2919061097f565b60405180910390f35b6100f560048036038101906100f091906107f6565b610293565b6040516101039291906109b5565b60405180910390f35b610126600480360381019061012191906109de565b6102e4565b005b60003373ffffffffffffffffffffffffffffffffffffffff168573ffffffffffffffffffffffffffffffffffffffff167ff45de2a4efbdd3cb1d3639c28f1798f2e4c60ff4cd9031fd2097ef76aebc1536866040516101879190610a2d565b60405180910390a363150b7a0260e01b905095945050505050565b6000606060008060008573ffffffffffffffffffffffffffffffffffffffff1673ffffffffffffffffffffffffffffffffffffffff16815260200190815260200160002090508060000160009054906101000a900473ffffffffffffffffffffffffffffffffffffffff16816001018080548060200260200160405190810160405280929190818152602001828054801561025c57602002820191906000526020600020905b815481526020019060010190808311610248575b505050505090509250925050915091565b600160009054906101000a900473ffffffffffffffffffffffffffffffffffffffff1681565b60006020528060005260406000206000915090508060000160009054906101000a900473ffffffffffffffffffffffffffffffffffffffff16908060020160009054906101000a900460ff16905082565b60008290503373ffffffffffffffffffffffffffffffffffffffff168173ffffffffffffffffffffffffffffffffffffffff16636352211e846040518263ffffffff1660e01b81526004016103399190610a2d565b602060405180830381865afa158015610356573d6000803e3d6000fd5b505050506040513d601f19601f8201168201806040525081019061037a9190610a5d565b73ffffffffffffffffffffffffffffffffffffffff16146103d0576040517f08c379a00000000000000000000000000000000000000000000000000000000081526004016103c790610ae7565b60405180910390fd5b8073ffffffffffffffffffffffffffffffffffffffff166342842e0e3330856040518463ffffffff1660e01b815260040161040d93929190610b07565b600060405180830381600087803b15801561042757600080fd5b505af115801561043b573d6000803e3d6000fd5b50505050826000803373ffffffffffffffffffffffffffffffffffffffff1673ffffffffffffffffffffffffffffffffffffffff16815260200190815260200160002060000160006101000a81548173ffffffffffffffffffffffffffffffffffffffff021916908373ffffffffffffffffffffffffffffffffffffffff1602179055506000803373ffffffffffffffffffffffffffffffffffffffff1673ffffffffffffffffffffffffffffffffffffffff16815260200190815260200160002060010182908060018154018082558091505060019003906000526020600020016000909190919091505560016000803373ffffffffffffffffffffffffffffffffffffffff1673ffffffffffffffffffffffffffffffffffffffff16815260200190815260200160002060020160006101000a81548160ff021916908315150217905550600160009054906101000a900473ffffffffffffffffffffffffffffffffffffffff1673ffffffffffffffffffffffffffffffffffffffff166370a7eba933846040518363ffffffff1660e01b81526004016105de929190610b3e565b600060405180830381600087803b1580156105f857600080fd5b505af115801561060c573d6000803e3d6000fd5b50505050505050565b600080fd5b600080fd5b600073ffffffffffffffffffffffffffffffffffffffff82169050919050565b600061064a8261061f565b9050919050565b61065a8161063f565b811461066557600080fd5b50565b60008135905061067781610651565b92915050565b6000819050919050565b6106908161067d565b811461069b57600080fd5b50565b6000813590506106ad81610687565b92915050565b600080fd5b600080fd5b600080fd5b60008083601f8401126106d8576106d76106b3565b5b8235905067ffffffffffffffff8111156106f5576106f46106b8565b5b602083019150836001820283011115610711576107106106bd565b5b9250929050565b60008060008060006080868803121561073457610733610615565b5b600061074288828901610668565b955050602061075388828901610668565b94505060406107648882890161069e565b935050606086013567ffffffffffffffff8111156107855761078461061a565b5b610791888289016106c2565b92509250509295509295909350565b60007fffffffff0000000000000000000000000000000000000000000000000000000082169050919050565b6107d5816107a0565b82525050565b60006020820190506107f060008301846107cc565b92915050565b60006020828403121561080c5761080b610615565b5b600061081a84828501610668565b91505092915050565b61082c8161063f565b82525050565b600081519050919050565b600082825260208201905092915050565b6000819050602082019050919050565b6108678161067d565b82525050565b6000610879838361085e565b60208301905092915050565b6000602082019050919050565b600061089d82610832565b6108a7818561083d565b93506108b28361084e565b8060005b838110156108e35781516108ca888261086d565b97506108d583610885565b9250506001810190506108b6565b5085935050505092915050565b60006040820190506109056000830185610823565b81810360208301526109178184610892565b90509392505050565b6000819050919050565b600061094561094061093b8461061f565b610920565b61061f565b9050919050565b60006109578261092a565b9050919050565b60006109698261094c565b9050919050565b6109798161095e565b82525050565b60006020820190506109946000830184610970565b92915050565b60008115159050919050565b6109af8161099a565b82525050565b60006040820190506109ca6000830185610823565b6109d760208301846109a6565b9392505050565b600080604083850312156109f5576109f4610615565b5b6000610a0385828601610668565b9250506020610a148582860161069e565b9150509250929050565b610a278161067d565b82525050565b6000602082019050610a426000830184610a1e565b92915050565b600081519050610a5781610651565b92915050565b600060208284031215610a7357610a72610615565b5b6000610a8184828501610a48565b91505092915050565b600082825260208201905092915050565b7f596f7520646f206e6f74206f776e2074686973204e4654000000000000000000600082015250565b6000610ad1601783610a8a565b9150610adc82610a9b565b602082019050919050565b60006020820190508181036000830152610b0081610ac4565b9050919050565b6000606082019050610b1c6000830186610823565b610b296020830185610823565b610b366040830184610a1e565b949350505050565b6000604082019050610b536000830185610823565b610b606020830184610a1e565b939250505056fea26469706673582212203b4edb3bea8f389ae677759c3d1cda1d2daec04a764651026e027c8dd000c1ca64736f6c634300081b0033",
  "linkReferences": {},
  "deployedLinkReferences": {}
}