{
  "_format": "hh-sol-artifact-1",
  "contractName": "WalletEscrow",
  "sourceName": "contracts/WalletEscrow.sol",
  "abi": [
    {
      "inputs": [],
      "stateMutability": "nonpayable",
      "type": "constructor"
    },
    {
      "inputs": [],
      "name": "ERC721EnumerableForbiddenBatchMint",
      "type": "error"
    },
    {
      "inputs": [
        {
          "internalType": "address",
          "name": "sender",
          "type": "address"
        },
        {
          "internalType": "uint256",
          "name": "tokenId",
          "type": "uint256"
        },
        {
          "internalType": "address",
          "name": "owner",
          "type": "address"
        }
      ],
      "name": "ERC721IncorrectOwner",
      "type": "error"
    },
    {
      "inputs": [
        {
          "internalType": "address",
          "name": "operator",
          "type": "address"
        },
        {
          "internalType": "uint256",
          "name": "tokenId",
          "type": "uint256"
        }
      ],
      "name": "ERC721InsufficientApproval",
      "type": "error"
    },
    {
      "inputs": [
        {
          "internalType": "address",
          "name": "approver",
          "type": "address"
        }
      ],
      "name": "ERC721InvalidApprover",
      "type": "error"
    },
    {
      "inputs": [
        {
          "internalType": "address",
          "name": "operator",
          "type": "address"
        }
      ],
      "name": "ERC721InvalidOperator",
      "type": "error"
    },
    {
      "inputs": [
        {
          "internalType": "address",
          "name": "owner",
          "type": "address"
        }
      ],
      "name": "ERC721InvalidOwner",
      "type": "error"
    },
    {
      "inputs": [
        {
          "internalType": "address",
          "name": "receiver",
          "type": "address"
        }
      ],
      "name": "ERC721InvalidReceiver",
      "type": "error"
    },
    {
      "inputs": [
        {
          "internalType": "address",
          "name": "sender",
          "type": "address"
        }
      ],
      "name": "ERC721InvalidSender",
      "type": "error"
    },
    {
      "inputs": [
        {
          "internalType": "uint256",
          "name": "tokenId",
          "type": "uint256"
        }
      ],
      "name": "ERC721NonexistentToken",
      "type": "error"
    },
    {
      "inputs": [
        {
          "internalType": "address",
          "name": "owner",
          "type": "address"
        },
        {
          "internalType": "uint256",
          "name": "index",
          "type": "uint256"
        }
      ],
      "name": "ERC721OutOfBoundsIndex",
      "type": "error"
    },
    {
      "anonymous": false,
      "inputs": [
        {
          "indexed": true,
          "internalType": "address",
          "name": "owner",
          "type": "address"
        },
        {
          "indexed": true,
          "internalType": "address",
          "name": "approved",
          "type": "address"
        },
        {
          "indexed": true,
          "internalType": "uint256",
          "name": "tokenId",
          "type": "uint256"
        }
      ],
      "name": "Approval",
      "type": "event"
    },
    {
      "anonymous": false,
      "inputs": [
        {
          "indexed": true,
          "internalType": "address",
          "name": "owner",
          "type": "address"
        },
        {
          "indexed": true,
          "internalType": "address",
          "name": "operator",
          "type": "address"
        },
        {
          "indexed": false,
          "internalType": "bool",
          "name": "approved",
          "type": "bool"
        }
      ],
      "name": "ApprovalForAll",
      "type": "event"
    },
    {
      "anonymous": false,
      "inputs": [
        {
          "indexed": true,
          "internalType": "address",
          "name": "from",
          "type": "address"
        },
        {
          "indexed": true,
          "internalType": "address",
          "name": "to",
          "type": "address"
        },
        {
          "indexed": true,
          "internalType": "uint256",
          "name": "tokenId",
          "type": "uint256"
        }
      ],
      "name": "Transfer",
      "type": "event"
    },
    {
      "anonymous": false,
      "inputs": [
        {
          "indexed": false,
          "internalType": "address",
          "name": "sender",
          "type": "address"
        },
        {
          "indexed": false,
          "internalType": "uint256",
          "name": "tokenCount",
          "type": "uint256"
        }
      ],
      "name": "numerge",
      "type": "event"
    },
    {
      "inputs": [
        {
          "internalType": "address",
          "name": "to",
          "type": "address"
        },
        {
          "internalType": "uint256",
          "name": "tokenId",
          "type": "uint256"
        }
      ],
      "name": "approve",
      "outputs": [],
      "stateMutability": "nonpayable",
      "type": "function"
    },
    {
      "inputs": [
        {
          "internalType": "address",
          "name": "owner",
          "type": "address"
        }
      ],
      "name": "balanceOf",
      "outputs": [
        {
          "internalType": "uint256",
          "name": "",
          "type": "uint256"
        }
      ],
      "stateMutability": "view",
      "type": "function"
    },
    {
      "inputs": [
        {
          "internalType": "address",
          "name": "",
          "type": "address"
        }
      ],
      "name": "escrowadrese",
      "outputs": [
        {
          "internalType": "uint256",
          "name": "",
          "type": "uint256"
        }
      ],
      "stateMutability": "view",
      "type": "function"
    },
    {
      "inputs": [
        {
          "internalType": "address",
          "name": "",
          "type": "address"
        }
      ],
      "name": "escrowpower",
      "outputs": [
        {
          "internalType": "uint256",
          "name": "",
          "type": "uint256"
        }
      ],
      "stateMutability": "view",
      "type": "function"
    },
    {
      "inputs": [
        {
          "internalType": "uint256",
          "name": "tokenId",
          "type": "uint256"
        }
      ],
      "name": "getApproved",
      "outputs": [
        {
          "internalType": "address",
          "name": "",
          "type": "address"
        }
      ],
      "stateMutability": "view",
      "type": "function"
    },
    {
      "inputs": [],
      "name": "getOwnedNFTs",
      "outputs": [
        {
          "internalType": "uint256[]",
          "name": "",
          "type": "uint256[]"
        }
      ],
      "stateMutability": "nonpayable",
      "type": "function"
    },
    {
      "inputs": [
        {
          "internalType": "address",
          "name": "to",
          "type": "address"
        },
        {
          "internalType": "uint256",
          "name": "amount",
          "type": "uint256"
        }
      ],
      "name": "givepower",
      "outputs": [],
      "stateMutability": "nonpayable",
      "type": "function"
    },
    {
      "inputs": [
        {
          "internalType": "address",
          "name": "owner",
          "type": "address"
        },
        {
          "internalType": "address",
          "name": "operator",
          "type": "address"
        }
      ],
      "name": "isApprovedForAll",
      "outputs": [
        {
          "internalType": "bool",
          "name": "",
          "type": "bool"
        }
      ],
      "stateMutability": "view",
      "type": "function"
    },
    {
      "inputs": [],
      "name": "name",
      "outputs": [
        {
          "internalType": "string",
          "name": "",
          "type": "string"
        }
      ],
      "stateMutability": "view",
      "type": "function"
    },
    {
      "inputs": [
        {
          "internalType": "uint256",
          "name": "tokenId",
          "type": "uint256"
        }
      ],
      "name": "ownerOf",
      "outputs": [
        {
          "internalType": "address",
          "name": "",
          "type": "address"
        }
      ],
      "stateMutability": "view",
      "type": "function"
    },
    {
      "inputs": [],
      "name": "pay",
      "outputs": [],
      "stateMutability": "payable",
      "type": "function"
    },
    {
      "inputs": [
        {
          "internalType": "address",
          "name": "who",
          "type": "address"
        },
        {
          "internalType": "uint256",
          "name": "sum",
          "type": "uint256"
        }
      ],
      "name": "payforbid",
      "outputs": [],
      "stateMutability": "nonpayable",
      "type": "function"
    },
    {
      "inputs": [],
      "name": "putere",
      "outputs": [
        {
          "internalType": "uint256",
          "name": "",
          "type": "uint256"
        }
      ],
      "stateMutability": "view",
      "type": "function"
    },
    {
      "inputs": [
        {
          "internalType": "address",
          "name": "from",
          "type": "address"
        },
        {
          "internalType": "address",
          "name": "to",
          "type": "address"
        },
        {
          "internalType": "uint256",
          "name": "tokenId",
          "type": "uint256"
        }
      ],
      "name": "safeTransferFrom",
      "outputs": [],
      "stateMutability": "nonpayable",
      "type": "function"
    },
    {
      "inputs": [
        {
          "internalType": "address",
          "name": "from",
          "type": "address"
        },
        {
          "internalType": "address",
          "name": "to",
          "type": "address"
        },
        {
          "internalType": "uint256",
          "name": "tokenId",
          "type": "uint256"
        },
        {
          "internalType": "bytes",
          "name": "data",
          "type": "bytes"
        }
      ],
      "name": "safeTransferFrom",
      "outputs": [],
      "stateMutability": "nonpayable",
      "type": "function"
    },
    {
      "inputs": [
        {
          "internalType": "address",
          "name": "operator",
          "type": "address"
        },
        {
          "internalType": "bool",
          "name": "approved",
          "type": "bool"
        }
      ],
      "name": "setApprovalForAll",
      "outputs": [],
      "stateMutability": "nonpayable",
      "type": "function"
    },
    {
      "inputs": [
        {
          "internalType": "bytes4",
          "name": "interfaceId",
          "type": "bytes4"
        }
      ],
      "name": "supportsInterface",
      "outputs": [
        {
          "internalType": "bool",
          "name": "",
          "type": "bool"
        }
      ],
      "stateMutability": "view",
      "type": "function"
    },
    {
      "inputs": [],
      "name": "symbol",
      "outputs": [
        {
          "internalType": "string",
          "name": "",
          "type": "string"
        }
      ],
      "stateMutability": "view",
      "type": "function"
    },
    {
      "inputs": [
        {
          "internalType": "uint256",
          "name": "amount",
          "type": "uint256"
        }
      ],
      "name": "takepower",
      "outputs": [],
      "stateMutability": "nonpayable",
      "type": "function"
    },
    {
      "inputs": [
        {
          "internalType": "uint256",
          "name": "index",
          "type": "uint256"
        }
      ],
      "name": "tokenByIndex",
      "outputs": [
        {
          "internalType": "uint256",
          "name": "",
          "type": "uint256"
        }
      ],
      "stateMutability": "view",
      "type": "function"
    },
    {
      "inputs": [
        {
          "internalType": "address",
          "name": "owner",
          "type": "address"
        },
        {
          "internalType": "uint256",
          "name": "index",
          "type": "uint256"
        }
      ],
      "name": "tokenOfOwnerByIndex",
      "outputs": [
        {
          "internalType": "uint256",
          "name": "",
          "type": "uint256"
        }
      ],
      "stateMutability": "view",
      "type": "function"
    },
    {
      "inputs": [
        {
          "internalType": "uint256",
          "name": "tokenId",
          "type": "uint256"
        }
      ],
      "name": "tokenURI",
      "outputs": [
        {
          "internalType": "string",
          "name": "",
          "type": "string"
        }
      ],
      "stateMutability": "view",
      "type": "function"
    },
    {
      "inputs": [],
      "name": "totalSupply",
      "outputs": [
        {
          "internalType": "uint256",
          "name": "",
          "type": "uint256"
        }
      ],
      "stateMutability": "view",
      "type": "function"
    },
    {
      "inputs": [
        {
          "internalType": "address",
          "name": "from",
          "type": "address"
        },
        {
          "internalType": "address",
          "name": "to",
          "type": "address"
        },
        {
          "internalType": "uint256",
          "name": "tokenId",
          "type": "uint256"
        }
      ],
      "name": "transferFrom",
      "outputs": [],
      "stateMutability": "nonpayable",
      "type": "function"
    },
    {
      "inputs": [
        {
          "internalType": "address",
          "name": "to",
          "type": "address"
        },
        {
          "internalType": "uint256",
          "name": "tokenId",
          "type": "uint256"
        }
      ],
      "name": "transferNFT",
      "outputs": [],
      "stateMutability": "nonpayable",
      "type": "function"
    },
    {
      "inputs": [],
      "name": "withdrawall",
      "outputs": [],
      "stateMutability": "nonpayable",
      "type": "function"
    }
  ],
  "bytecode": "0x608060405234801561001057600080fd5b506040518060400160405280600c81526020017f57616c6c6574457363726f7700000000000000000000000000000000000000008152506040518060400160405280600381526020017f57414c0000000000000000000000000000000000000000000000000000000000815250816000908161008c91906102f4565b50806001908161009c91906102f4565b5050506103c6565b600081519050919050565b7f4e487b7100000000000000000000000000000000000000000000000000000000600052604160045260246000fd5b7f4e487b7100000000000000000000000000000000000000000000000000000000600052602260045260246000fd5b6000600282049050600182168061012557607f821691505b602082108103610138576101376100de565b5b50919050565b60008190508160005260206000209050919050565b60006020601f8301049050919050565b600082821b905092915050565b6000600883026101a07fffffffffffffffffffffffffffffffffffffffffffffffffffffffffffffffff82610163565b6101aa8683610163565b95508019841693508086168417925050509392505050565b6000819050919050565b6000819050919050565b60006101f16101ec6101e7846101c2565b6101cc565b6101c2565b9050919050565b6000819050919050565b61020b836101d6565b61021f610217826101f8565b848454610170565b825550505050565b600090565b610234610227565b61023f818484610202565b505050565b5b818110156102635761025860008261022c565b600181019050610245565b5050565b601f8211156102a8576102798161013e565b61028284610153565b81016020851015610291578190505b6102a561029d85610153565b830182610244565b50505b505050565b600082821c905092915050565b60006102cb600019846008026102ad565b1980831691505092915050565b60006102e483836102ba565b9150826002028217905092915050565b6102fd826100a4565b67ffffffffffffffff811115610316576103156100af565b5b610320825461010d565b61032b828285610267565b600060209050601f83116001811461035e576000841561034c578287015190505b61035685826102d8565b8655506103be565b601f19841661036c8661013e565b60005b828110156103945784890151825560018201915060208501945060208101905061036f565b868310156103b157848901516103ad601f8916826102ba565b8355505b6001600288020188555050505b505050505050565b61327a806103d56000396000f3fe6080604052600436106101805760003560e01c80634f6ccce7116100d157806395d89b411161008a578063bf7d1b7b11610064578063bf7d1b7b14610594578063c87b56dd146105bf578063e985e9c5146105fc578063f66c72811461063957610180565b806395d89b4114610517578063a22cb46514610542578063b88d4fde1461056b57610180565b80634f6ccce7146103d157806353f3741d1461040e5780636352211e1461043757806370a0823114610474578063857d3d4b146104b157806394ab67fe146104ee57610180565b80631b9265b81161013e5780632bc55f4e116101185780632bc55f4e146103175780632f745c591461034057806342842e0e1461037d5780634c0eb7d9146103a657610180565b80631b9265b8146102a75780631c26d596146102b157806323b872dd146102ee57610180565b806243ed8f1461018557806301ffc9a7146101ae57806306fdde03146101eb578063081812fc14610216578063095ea7b31461025357806318160ddd1461027c575b600080fd5b34801561019157600080fd5b506101ac60048036038101906101a791906126cd565b610650565b005b3480156101ba57600080fd5b506101d560048036038101906101d09190612765565b6108d4565b6040516101e291906127ad565b60405180910390f35b3480156101f757600080fd5b5061020061094e565b60405161020d9190612858565b60405180910390f35b34801561022257600080fd5b5061023d6004803603810190610238919061287a565b6109e0565b60405161024a91906128b6565b60405180910390f35b34801561025f57600080fd5b5061027a600480360381019061027591906126cd565b6109fc565b005b34801561028857600080fd5b50610291610a12565b60405161029e91906128e0565b60405180910390f35b6102af610a1f565b005b3480156102bd57600080fd5b506102d860048036038101906102d391906128fb565b610ad9565b6040516102e591906128e0565b60405180910390f35b3480156102fa57600080fd5b5061031560048036038101906103109190612928565b610af1565b005b34801561032357600080fd5b5061033e6004803603810190610339919061287a565b610bf3565b005b34801561034c57600080fd5b50610367600480360381019061036291906126cd565b610c4c565b60405161037491906128e0565b60405180910390f35b34801561038957600080fd5b506103a4600480360381019061039f9190612928565b610cf5565b005b3480156103b257600080fd5b506103bb610d15565b6040516103c89190612a39565b60405180910390f35b3480156103dd57600080fd5b506103f860048036038101906103f3919061287a565b610e37565b60405161040591906128e0565b60405180910390f35b34801561041a57600080fd5b50610435600480360381019061043091906126cd565b610ead565b005b34801561044357600080fd5b5061045e6004803603810190610459919061287a565b610f07565b60405161046b91906128b6565b60405180910390f35b34801561048057600080fd5b5061049b600480360381019061049691906128fb565b610f19565b6040516104a891906128e0565b60405180910390f35b3480156104bd57600080fd5b506104d860048036038101906104d391906128fb565b610fd3565b6040516104e591906128e0565b60405180910390f35b3480156104fa57600080fd5b50610515600480360381019061051091906126cd565b610feb565b005b34801561052357600080fd5b5061052c611070565b6040516105399190612858565b60405180910390f35b34801561054e57600080fd5b5061056960048036038101906105649190612a87565b611102565b005b34801561057757600080fd5b50610592600480360381019061058d9190612bfc565b611118565b005b3480156105a057600080fd5b506105a961113d565b6040516105b691906128e0565b60405180910390f35b3480156105cb57600080fd5b506105e660048036038101906105e1919061287a565b61118f565b6040516105f39190612858565b60405180910390f35b34801561060857600080fd5b50610623600480360381019061061e9190612c7f565b6111f8565b60405161063091906127ad565b60405180910390f35b34801561064557600080fd5b5061064e61128c565b005b80600a60003373ffffffffffffffffffffffffffffffffffffffff1673ffffffffffffffffffffffffffffffffffffffff1681526020019081526020016000205410156106d2576040517f08c379a00000000000000000000000000000000000000000000000000000000081526004016106c990612d0b565b60405180910390fd5b6009816106df9190612d5a565b600b60003373ffffffffffffffffffffffffffffffffffffffff1673ffffffffffffffffffffffffffffffffffffffff168152602001908152602001600020541015610760576040517f08c379a000000000000000000000000000000000000000000000000000000000815260040161075790612de8565b60405180910390fd5b80600a60003373ffffffffffffffffffffffffffffffffffffffff1673ffffffffffffffffffffffffffffffffffffffff16815260200190815260200160002060008282546107af9190612e08565b925050819055506009816107c39190612d5a565b600b60003373ffffffffffffffffffffffffffffffffffffffff1673ffffffffffffffffffffffffffffffffffffffff16815260200190815260200160002060008282546108119190612e08565b9250508190555080600a60008473ffffffffffffffffffffffffffffffffffffffff1673ffffffffffffffffffffffffffffffffffffffff16815260200190815260200160002060008282546108679190612e3c565b92505081905550600a8161087b9190612d5a565b600b60008473ffffffffffffffffffffffffffffffffffffffff1673ffffffffffffffffffffffffffffffffffffffff16815260200190815260200160002060008282546108c99190612e3c565b925050819055505050565b60007f780e9d63000000000000000000000000000000000000000000000000000000007bffffffffffffffffffffffffffffffffffffffffffffffffffffffff1916827bffffffffffffffffffffffffffffffffffffffffffffffffffffffff191614806109475750610946826113e7565b5b9050919050565b60606000805461095d90612e9f565b80601f016020809104026020016040519081016040528092919081815260200182805461098990612e9f565b80156109d65780601f106109ab576101008083540402835291602001916109d6565b820191906000526020600020905b8154815290600101906020018083116109b957829003601f168201915b5050505050905090565b60006109eb826114c9565b506109f582611551565b9050919050565b610a0e8282610a0961158e565b611596565b5050565b6000600880549050905090565b34600a60003373ffffffffffffffffffffffffffffffffffffffff1673ffffffffffffffffffffffffffffffffffffffff1681526020019081526020016000206000828254610a6e9190612e3c565b92505081905550600a34610a829190612d5a565b600b60003373ffffffffffffffffffffffffffffffffffffffff1673ffffffffffffffffffffffffffffffffffffffff1681526020019081526020016000206000828254610ad09190612e3c565b92505081905550565b600a6020528060005260406000206000915090505481565b600073ffffffffffffffffffffffffffffffffffffffff168273ffffffffffffffffffffffffffffffffffffffff1603610b635760006040517f64a0ae92000000000000000000000000000000000000000000000000000000008152600401610b5a91906128b6565b60405180910390fd5b6000610b778383610b7261158e565b6115a8565b90508373ffffffffffffffffffffffffffffffffffffffff168173ffffffffffffffffffffffffffffffffffffffff1614610bed578382826040517f64283d7b000000000000000000000000000000000000000000000000000000008152600401610be493929190612ed0565b60405180910390fd5b50505050565b80600b60003373ffffffffffffffffffffffffffffffffffffffff1673ffffffffffffffffffffffffffffffffffffffff1681526020019081526020016000206000828254610c429190612e08565b9250508190555050565b6000610c5783610f19565b8210610c9c5782826040517fa57d13dc000000000000000000000000000000000000000000000000000000008152600401610c93929190612f07565b60405180910390fd5b600660008473ffffffffffffffffffffffffffffffffffffffff1673ffffffffffffffffffffffffffffffffffffffff168152602001908152602001600020600083815260200190815260200160002054905092915050565b610d1083838360405180602001604052806000815250611118565b505050565b60606000610d2233610f19565b90507f1482759c2f4be36589b4e9398649a43487524adb51d3d25789a83cdf54ec73a93382604051610d55929190612f07565b60405180910390a160008111610da0576040517f08c379a0000000000000000000000000000000000000000000000000000000008152600401610d9790612f7c565b60405180910390fd5b60008167ffffffffffffffff811115610dbc57610dbb612ad1565b5b604051908082528060200260200182016040528015610dea5781602001602082028036833780820191505090505b50905060005b82811015610e2e57610e023382610c4c565b828281518110610e1557610e14612f9c565b5b6020026020010181815250508080600101915050610df0565b50809250505090565b6000610e41610a12565b8210610e87576000826040517fa57d13dc000000000000000000000000000000000000000000000000000000008152600401610e7e929190612f07565b60405180910390fd5b60088281548110610e9b57610e9a612f9c565b5b90600052602060002001549050919050565b80600b60008473ffffffffffffffffffffffffffffffffffffffff1673ffffffffffffffffffffffffffffffffffffffff1681526020019081526020016000206000828254610efc9190612e3c565b925050819055505050565b6000610f12826114c9565b9050919050565b60008073ffffffffffffffffffffffffffffffffffffffff168273ffffffffffffffffffffffffffffffffffffffff1603610f8c5760006040517f89c62b64000000000000000000000000000000000000000000000000000000008152600401610f8391906128b6565b60405180910390fd5b600360008373ffffffffffffffffffffffffffffffffffffffff1673ffffffffffffffffffffffffffffffffffffffff168152602001908152602001600020549050919050565b600b6020528060005260406000206000915090505481565b3373ffffffffffffffffffffffffffffffffffffffff1661100b82610f07565b73ffffffffffffffffffffffffffffffffffffffff1614611061576040517f08c379a000000000000000000000000000000000000000000000000000000000815260040161105890613017565b60405180910390fd5b61106c3383836116c5565b5050565b60606001805461107f90612e9f565b80601f01602080910402602001604051908101604052809291908181526020018280546110ab90612e9f565b80156110f85780601f106110cd576101008083540402835291602001916110f8565b820191906000526020600020905b8154815290600101906020018083116110db57829003601f168201915b5050505050905090565b61111461110d61158e565b8383611832565b5050565b611123848484610af1565b61113761112e61158e565b858585856119a1565b50505050565b6000600a8060003373ffffffffffffffffffffffffffffffffffffffff1673ffffffffffffffffffffffffffffffffffffffff1681526020019081526020016000205461118a9190612d5a565b905090565b606061119a826114c9565b5060006111a5611b52565b905060008151116111c557604051806020016040528060008152506111f0565b806111cf84611b69565b6040516020016111e0929190613073565b6040516020818303038152906040525b915050919050565b6000600560008473ffffffffffffffffffffffffffffffffffffffff1673ffffffffffffffffffffffffffffffffffffffff16815260200190815260200160002060008373ffffffffffffffffffffffffffffffffffffffff1673ffffffffffffffffffffffffffffffffffffffff16815260200190815260200160002060009054906101000a900460ff16905092915050565b6000600a60003373ffffffffffffffffffffffffffffffffffffffff1673ffffffffffffffffffffffffffffffffffffffff16815260200190815260200160002054905060008111611313576040517f08c379a000000000000000000000000000000000000000000000000000000000815260040161130a906130e3565b60405180910390fd5b6000600a60003373ffffffffffffffffffffffffffffffffffffffff1673ffffffffffffffffffffffffffffffffffffffff168152602001908152602001600020819055506000600b60003373ffffffffffffffffffffffffffffffffffffffff1673ffffffffffffffffffffffffffffffffffffffff168152602001908152602001600020819055503373ffffffffffffffffffffffffffffffffffffffff166108fc829081150290604051600060405180830381858888f193505050501580156113e3573d6000803e3d6000fd5b5050565b60007f80ac58cd000000000000000000000000000000000000000000000000000000007bffffffffffffffffffffffffffffffffffffffffffffffffffffffff1916827bffffffffffffffffffffffffffffffffffffffffffffffffffffffff191614806114b257507f5b5e139f000000000000000000000000000000000000000000000000000000007bffffffffffffffffffffffffffffffffffffffffffffffffffffffff1916827bffffffffffffffffffffffffffffffffffffffffffffffffffffffff1916145b806114c257506114c182611c37565b5b9050919050565b6000806114d583611ca1565b9050600073ffffffffffffffffffffffffffffffffffffffff168173ffffffffffffffffffffffffffffffffffffffff160361154857826040517f7e27328900000000000000000000000000000000000000000000000000000000815260040161153f91906128e0565b60405180910390fd5b80915050919050565b60006004600083815260200190815260200160002060009054906101000a900473ffffffffffffffffffffffffffffffffffffffff169050919050565b600033905090565b6115a38383836001611cde565b505050565b6000806115b6858585611ea3565b9050600073ffffffffffffffffffffffffffffffffffffffff168173ffffffffffffffffffffffffffffffffffffffff16036115fa576115f5846120bd565b611639565b8473ffffffffffffffffffffffffffffffffffffffff168173ffffffffffffffffffffffffffffffffffffffff1614611638576116378185612106565b5b5b600073ffffffffffffffffffffffffffffffffffffffff168573ffffffffffffffffffffffffffffffffffffffff160361167b57611676846121f1565b6116ba565b8473ffffffffffffffffffffffffffffffffffffffff168173ffffffffffffffffffffffffffffffffffffffff16146116b9576116b885856122c2565b5b5b809150509392505050565b600073ffffffffffffffffffffffffffffffffffffffff168273ffffffffffffffffffffffffffffffffffffffff16036117375760006040517f64a0ae9200000000000000000000000000000000000000000000000000000000815260040161172e91906128b6565b60405180910390fd5b6000611745838360006115a8565b9050600073ffffffffffffffffffffffffffffffffffffffff168173ffffffffffffffffffffffffffffffffffffffff16036117b857816040517f7e2732890000000000000000000000000000000000000000000000000000000081526004016117af91906128e0565b60405180910390fd5b8373ffffffffffffffffffffffffffffffffffffffff168173ffffffffffffffffffffffffffffffffffffffff161461182c578382826040517f64283d7b00000000000000000000000000000000000000000000000000000000815260040161182393929190612ed0565b60405180910390fd5b50505050565b600073ffffffffffffffffffffffffffffffffffffffff168273ffffffffffffffffffffffffffffffffffffffff16036118a357816040517f5b08ba1800000000000000000000000000000000000000000000000000000000815260040161189a91906128b6565b60405180910390fd5b80600560008573ffffffffffffffffffffffffffffffffffffffff1673ffffffffffffffffffffffffffffffffffffffff16815260200190815260200160002060008473ffffffffffffffffffffffffffffffffffffffff1673ffffffffffffffffffffffffffffffffffffffff16815260200190815260200160002060006101000a81548160ff0219169083151502179055508173ffffffffffffffffffffffffffffffffffffffff168373ffffffffffffffffffffffffffffffffffffffff167f17307eab39ab6107e8899845ad3d59bd9653f200f220920489ca2b5937696c318360405161199491906127ad565b60405180910390a3505050565b60008373ffffffffffffffffffffffffffffffffffffffff163b1115611b4b578273ffffffffffffffffffffffffffffffffffffffff1663150b7a02868685856040518563ffffffff1660e01b8152600401611a009493929190613158565b6020604051808303816000875af1925050508015611a3c57506040513d601f19601f82011682018060405250810190611a3991906131b9565b60015b611ac0573d8060008114611a6c576040519150601f19603f3d011682016040523d82523d6000602084013e611a71565b606091505b506000815103611ab857836040517f64a0ae92000000000000000000000000000000000000000000000000000000008152600401611aaf91906128b6565b60405180910390fd5b805181602001fd5b63150b7a0260e01b7bffffffffffffffffffffffffffffffffffffffffffffffffffffffff1916817bffffffffffffffffffffffffffffffffffffffffffffffffffffffff191614611b4957836040517f64a0ae92000000000000000000000000000000000000000000000000000000008152600401611b4091906128b6565b60405180910390fd5b505b5050505050565b606060405180602001604052806000815250905090565b606060006001611b788461234d565b01905060008167ffffffffffffffff811115611b9757611b96612ad1565b5b6040519080825280601f01601f191660200182016040528015611bc95781602001600182028036833780820191505090505b509050600082602001820190505b600115611c2c578080600190039150507f3031323334353637383961626364656600000000000000000000000000000000600a86061a8153600a8581611c2057611c1f6131e6565b5b04945060008503611bd7575b819350505050919050565b60007f01ffc9a7000000000000000000000000000000000000000000000000000000007bffffffffffffffffffffffffffffffffffffffffffffffffffffffff1916827bffffffffffffffffffffffffffffffffffffffffffffffffffffffff1916149050919050565b60006002600083815260200190815260200160002060009054906101000a900473ffffffffffffffffffffffffffffffffffffffff169050919050565b8080611d175750600073ffffffffffffffffffffffffffffffffffffffff168273ffffffffffffffffffffffffffffffffffffffff1614155b15611e4b576000611d27846114c9565b9050600073ffffffffffffffffffffffffffffffffffffffff168373ffffffffffffffffffffffffffffffffffffffff1614158015611d9257508273ffffffffffffffffffffffffffffffffffffffff168173ffffffffffffffffffffffffffffffffffffffff1614155b8015611da55750611da381846111f8565b155b15611de757826040517fa9fbf51f000000000000000000000000000000000000000000000000000000008152600401611dde91906128b6565b60405180910390fd5b8115611e4957838573ffffffffffffffffffffffffffffffffffffffff168273ffffffffffffffffffffffffffffffffffffffff167f8c5be1e5ebec7d5bd14f71427d1e84f3dd0314c0f7b2291e5b200ac8c7c3b92560405160405180910390a45b505b836004600085815260200190815260200160002060006101000a81548173ffffffffffffffffffffffffffffffffffffffff021916908373ffffffffffffffffffffffffffffffffffffffff16021790555050505050565b600080611eaf84611ca1565b9050600073ffffffffffffffffffffffffffffffffffffffff168373ffffffffffffffffffffffffffffffffffffffff1614611ef157611ef08184866124a0565b5b600073ffffffffffffffffffffffffffffffffffffffff168173ffffffffffffffffffffffffffffffffffffffff1614611f8257611f33600085600080611cde565b6001600360008373ffffffffffffffffffffffffffffffffffffffff1673ffffffffffffffffffffffffffffffffffffffff168152602001908152602001600020600082825403925050819055505b600073ffffffffffffffffffffffffffffffffffffffff168573ffffffffffffffffffffffffffffffffffffffff1614612005576001600360008773ffffffffffffffffffffffffffffffffffffffff1673ffffffffffffffffffffffffffffffffffffffff168152602001908152602001600020600082825401925050819055505b846002600086815260200190815260200160002060006101000a81548173ffffffffffffffffffffffffffffffffffffffff021916908373ffffffffffffffffffffffffffffffffffffffff160217905550838573ffffffffffffffffffffffffffffffffffffffff168273ffffffffffffffffffffffffffffffffffffffff167fddf252ad1be2c89b69c2b068fc378daa952ba7f163c4a11628f55a4df523b3ef60405160405180910390a4809150509392505050565b6008805490506009600083815260200190815260200160002081905550600881908060018154018082558091505060019003906000526020600020016000909190919091505550565b600061211183610f19565b90506000600760008481526020019081526020016000205490506000600660008673ffffffffffffffffffffffffffffffffffffffff1673ffffffffffffffffffffffffffffffffffffffff16815260200190815260200160002090508282146121bd5760008160008581526020019081526020016000205490508082600085815260200190815260200160002081905550826007600083815260200190815260200160002081905550505b6007600085815260200190815260200160002060009055806000848152602001908152602001600020600090555050505050565b600060016008805490506122059190612e08565b905060006009600084815260200190815260200160002054905060006008838154811061223557612234612f9c565b5b90600052602060002001549050806008838154811061225757612256612f9c565b5b9060005260206000200181905550816009600083815260200190815260200160002081905550600960008581526020019081526020016000206000905560088054806122a6576122a5613215565b5b6001900381819060005260206000200160009055905550505050565b600060016122cf84610f19565b6122d99190612e08565b905081600660008573ffffffffffffffffffffffffffffffffffffffff1673ffffffffffffffffffffffffffffffffffffffff168152602001908152602001600020600083815260200190815260200160002081905550806007600084815260200190815260200160002081905550505050565b600080600090507a184f03e93ff9f4daa797ed6e38ed64bf6a1f01000000000000000083106123ab577a184f03e93ff9f4daa797ed6e38ed64bf6a1f01000000000000000083816123a1576123a06131e6565b5b0492506040810190505b6d04ee2d6d415b85acef810000000083106123e8576d04ee2d6d415b85acef810000000083816123de576123dd6131e6565b5b0492506020810190505b662386f26fc10000831061241757662386f26fc10000838161240d5761240c6131e6565b5b0492506010810190505b6305f5e1008310612440576305f5e1008381612436576124356131e6565b5b0492506008810190505b612710831061246557612710838161245b5761245a6131e6565b5b0492506004810190505b60648310612488576064838161247e5761247d6131e6565b5b0492506002810190505b600a8310612497576001810190505b80915050919050565b6124ab838383612564565b61255f57600073ffffffffffffffffffffffffffffffffffffffff168373ffffffffffffffffffffffffffffffffffffffff160361252057806040517f7e27328900000000000000000000000000000000000000000000000000000000815260040161251791906128e0565b60405180910390fd5b81816040517f177e802f000000000000000000000000000000000000000000000000000000008152600401612556929190612f07565b60405180910390fd5b505050565b60008073ffffffffffffffffffffffffffffffffffffffff168373ffffffffffffffffffffffffffffffffffffffff161415801561261c57508273ffffffffffffffffffffffffffffffffffffffff168473ffffffffffffffffffffffffffffffffffffffff1614806125dd57506125dc84846111f8565b5b8061261b57508273ffffffffffffffffffffffffffffffffffffffff1661260383611551565b73ffffffffffffffffffffffffffffffffffffffff16145b5b90509392505050565b6000604051905090565b600080fd5b600080fd5b600073ffffffffffffffffffffffffffffffffffffffff82169050919050565b600061266482612639565b9050919050565b61267481612659565b811461267f57600080fd5b50565b6000813590506126918161266b565b92915050565b6000819050919050565b6126aa81612697565b81146126b557600080fd5b50565b6000813590506126c7816126a1565b92915050565b600080604083850312156126e4576126e361262f565b5b60006126f285828601612682565b9250506020612703858286016126b8565b9150509250929050565b60007fffffffff0000000000000000000000000000000000000000000000000000000082169050919050565b6127428161270d565b811461274d57600080fd5b50565b60008135905061275f81612739565b92915050565b60006020828403121561277b5761277a61262f565b5b600061278984828501612750565b91505092915050565b60008115159050919050565b6127a781612792565b82525050565b60006020820190506127c2600083018461279e565b92915050565b600081519050919050565b600082825260208201905092915050565b60005b838110156128025780820151818401526020810190506127e7565b60008484015250505050565b6000601f19601f8301169050919050565b600061282a826127c8565b61283481856127d3565b93506128448185602086016127e4565b61284d8161280e565b840191505092915050565b60006020820190508181036000830152612872818461281f565b905092915050565b6000602082840312156128905761288f61262f565b5b600061289e848285016126b8565b91505092915050565b6128b081612659565b82525050565b60006020820190506128cb60008301846128a7565b92915050565b6128da81612697565b82525050565b60006020820190506128f560008301846128d1565b92915050565b6000602082840312156129115761291061262f565b5b600061291f84828501612682565b91505092915050565b6000806000606084860312156129415761294061262f565b5b600061294f86828701612682565b935050602061296086828701612682565b9250506040612971868287016126b8565b9150509250925092565b600081519050919050565b600082825260208201905092915050565b6000819050602082019050919050565b6129b081612697565b82525050565b60006129c283836129a7565b60208301905092915050565b6000602082019050919050565b60006129e68261297b565b6129f08185612986565b93506129fb83612997565b8060005b83811015612a2c578151612a1388826129b6565b9750612a1e836129ce565b9250506001810190506129ff565b5085935050505092915050565b60006020820190508181036000830152612a5381846129db565b905092915050565b612a6481612792565b8114612a6f57600080fd5b50565b600081359050612a8181612a5b565b92915050565b60008060408385031215612a9e57612a9d61262f565b5b6000612aac85828601612682565b9250506020612abd85828601612a72565b9150509250929050565b600080fd5b600080fd5b7f4e487b7100000000000000000000000000000000000000000000000000000000600052604160045260246000fd5b612b098261280e565b810181811067ffffffffffffffff82111715612b2857612b27612ad1565b5b80604052505050565b6000612b3b612625565b9050612b478282612b00565b919050565b600067ffffffffffffffff821115612b6757612b66612ad1565b5b612b708261280e565b9050602081019050919050565b82818337600083830152505050565b6000612b9f612b9a84612b4c565b612b31565b905082815260208101848484011115612bbb57612bba612acc565b5b612bc6848285612b7d565b509392505050565b600082601f830112612be357612be2612ac7565b5b8135612bf3848260208601612b8c565b91505092915050565b60008060008060808587031215612c1657612c1561262f565b5b6000612c2487828801612682565b9450506020612c3587828801612682565b9350506040612c46878288016126b8565b925050606085013567ffffffffffffffff811115612c6757612c66612634565b5b612c7387828801612bce565b91505092959194509250565b60008060408385031215612c9657612c9561262f565b5b6000612ca485828601612682565b9250506020612cb585828601612682565b9150509250929050565b7f4e6f7420656e6f7567682066756e647300000000000000000000000000000000600082015250565b6000612cf56010836127d3565b9150612d0082612cbf565b602082019050919050565b60006020820190508181036000830152612d2481612ce8565b9050919050565b7f4e487b7100000000000000000000000000000000000000000000000000000000600052601160045260246000fd5b6000612d6582612697565b9150612d7083612697565b9250828202612d7e81612697565b91508282048414831517612d9557612d94612d2b565b5b5092915050565b7f4e6f7420656e6f75676820706f77657200000000000000000000000000000000600082015250565b6000612dd26010836127d3565b9150612ddd82612d9c565b602082019050919050565b60006020820190508181036000830152612e0181612dc5565b9050919050565b6000612e1382612697565b9150612e1e83612697565b9250828203905081811115612e3657612e35612d2b565b5b92915050565b6000612e4782612697565b9150612e5283612697565b9250828201905080821115612e6a57612e69612d2b565b5b92915050565b7f4e487b7100000000000000000000000000000000000000000000000000000000600052602260045260246000fd5b60006002820490506001821680612eb757607f821691505b602082108103612eca57612ec9612e70565b5b50919050565b6000606082019050612ee560008301866128a7565b612ef260208301856128d1565b612eff60408301846128a7565b949350505050565b6000604082019050612f1c60008301856128a7565b612f2960208301846128d1565b9392505050565b7f4e75206169204e46542d75726900000000000000000000000000000000000000600082015250565b6000612f66600d836127d3565b9150612f7182612f30565b602082019050919050565b60006020820190508181036000830152612f9581612f59565b9050919050565b7f4e487b7100000000000000000000000000000000000000000000000000000000600052603260045260246000fd5b7f596f7520617265206e6f7420746865206f776e65720000000000000000000000600082015250565b60006130016015836127d3565b915061300c82612fcb565b602082019050919050565b6000602082019050818103600083015261303081612ff4565b9050919050565b600081905092915050565b600061304d826127c8565b6130578185613037565b93506130678185602086016127e4565b80840191505092915050565b600061307f8285613042565b915061308b8284613042565b91508190509392505050565b7f4e6f2066756e647320746f207769746864726177000000000000000000000000600082015250565b60006130cd6014836127d3565b91506130d882613097565b602082019050919050565b600060208201905081810360008301526130fc816130c0565b9050919050565b600081519050919050565b600082825260208201905092915050565b600061312a82613103565b613134818561310e565b93506131448185602086016127e4565b61314d8161280e565b840191505092915050565b600060808201905061316d60008301876128a7565b61317a60208301866128a7565b61318760408301856128d1565b8181036060830152613199818461311f565b905095945050505050565b6000815190506131b381612739565b92915050565b6000602082840312156131cf576131ce61262f565b5b60006131dd848285016131a4565b91505092915050565b7f4e487b7100000000000000000000000000000000000000000000000000000000600052601260045260246000fd5b7f4e487b7100000000000000000000000000000000000000000000000000000000600052603160045260246000fdfea2646970667358221220952b642a027cf1bde14ffff20365abc63b34e7162748c76a9587e4e978c25a7b64736f6c634300081b0033",
  "linkReferences": {},
  "deployedLinkReferences": {}
}