{
  "_format": "hh-sol-artifact-1",
  "contractName": "WalletEscrow",
  "sourceName": "contracts/WalletEscrow.sol",
  "abi": [
    {
      "inputs": [
        {
          "internalType": "address",
          "name": "",
          "type": "address"
        }
      ],
      "name": "escrowadrese",
      "outputs": [
        {
          "internalType": "uint256",
          "name": "",
          "type": "uint256"
        }
      ],
      "stateMutability": "view",
      "type": "function"
    },
    {
      "inputs": [],
      "name": "pay",
      "outputs": [],
      "stateMutability": "payable",
      "type": "function"
    },
    {
      "inputs": [],
      "name": "putere",
      "outputs": [
        {
          "internalType": "uint256",
          "name": "",
          "type": "uint256"
        }
      ],
      "stateMutability": "view",
      "type": "function"
    }
  ],
  "bytecode": "0x6080604052348015600f57600080fd5b5061030b8061001f6000396000f3fe6080604052600436106100345760003560e01c80631b9265b8146100395780631c26d59614610043578063bf7d1b7b14610080575b600080fd5b6100416100ab565b005b34801561004f57600080fd5b5061006a600480360381019061006591906101cf565b610102565b6040516100779190610215565b60405180910390f35b34801561008c57600080fd5b5061009561011a565b6040516100a29190610215565b60405180910390f35b346000803373ffffffffffffffffffffffffffffffffffffffff1673ffffffffffffffffffffffffffffffffffffffff16815260200190815260200160002060008282546100f9919061025f565b92505081905550565b60006020528060005260406000206000915090505481565b6000600a6000803373ffffffffffffffffffffffffffffffffffffffff1673ffffffffffffffffffffffffffffffffffffffff168152602001908152602001600020546101679190610293565b905090565b600080fd5b600073ffffffffffffffffffffffffffffffffffffffff82169050919050565b600061019c82610171565b9050919050565b6101ac81610191565b81146101b757600080fd5b50565b6000813590506101c9816101a3565b92915050565b6000602082840312156101e5576101e461016c565b5b60006101f3848285016101ba565b91505092915050565b6000819050919050565b61020f816101fc565b82525050565b600060208201905061022a6000830184610206565b92915050565b7f4e487b7100000000000000000000000000000000000000000000000000000000600052601160045260246000fd5b600061026a826101fc565b9150610275836101fc565b925082820190508082111561028d5761028c610230565b5b92915050565b600061029e826101fc565b91506102a9836101fc565b92508282026102b7816101fc565b915082820484148315176102ce576102cd610230565b5b509291505056fea2646970667358221220da937a6864147a9336d7e1f38d91c86a7f2f9a49eca5f9591ff99034015fd52b64736f6c634300081b0033",
  "linkReferences": {},
  "deployedLinkReferences": {}
}