{
  "_format": "hh-sol-artifact-1",
  "contractName": "WalletEscrow",
  "sourceName": "contracts/WalletEscrow.sol",
  "abi": [
    {
      "inputs": [],
      "stateMutability": "nonpayable",
      "type": "constructor"
    },
    {
      "inputs": [],
      "name": "ERC721EnumerableForbiddenBatchMint",
      "type": "error"
    },
    {
      "inputs": [
        {
          "internalType": "address",
          "name": "sender",
          "type": "address"
        },
        {
          "internalType": "uint256",
          "name": "tokenId",
          "type": "uint256"
        },
        {
          "internalType": "address",
          "name": "owner",
          "type": "address"
        }
      ],
      "name": "ERC721IncorrectOwner",
      "type": "error"
    },
    {
      "inputs": [
        {
          "internalType": "address",
          "name": "operator",
          "type": "address"
        },
        {
          "internalType": "uint256",
          "name": "tokenId",
          "type": "uint256"
        }
      ],
      "name": "ERC721InsufficientApproval",
      "type": "error"
    },
    {
      "inputs": [
        {
          "internalType": "address",
          "name": "approver",
          "type": "address"
        }
      ],
      "name": "ERC721InvalidApprover",
      "type": "error"
    },
    {
      "inputs": [
        {
          "internalType": "address",
          "name": "operator",
          "type": "address"
        }
      ],
      "name": "ERC721InvalidOperator",
      "type": "error"
    },
    {
      "inputs": [
        {
          "internalType": "address",
          "name": "owner",
          "type": "address"
        }
      ],
      "name": "ERC721InvalidOwner",
      "type": "error"
    },
    {
      "inputs": [
        {
          "internalType": "address",
          "name": "receiver",
          "type": "address"
        }
      ],
      "name": "ERC721InvalidReceiver",
      "type": "error"
    },
    {
      "inputs": [
        {
          "internalType": "address",
          "name": "sender",
          "type": "address"
        }
      ],
      "name": "ERC721InvalidSender",
      "type": "error"
    },
    {
      "inputs": [
        {
          "internalType": "uint256",
          "name": "tokenId",
          "type": "uint256"
        }
      ],
      "name": "ERC721NonexistentToken",
      "type": "error"
    },
    {
      "inputs": [
        {
          "internalType": "address",
          "name": "owner",
          "type": "address"
        },
        {
          "internalType": "uint256",
          "name": "index",
          "type": "uint256"
        }
      ],
      "name": "ERC721OutOfBoundsIndex",
      "type": "error"
    },
    {
      "anonymous": false,
      "inputs": [
        {
          "indexed": true,
          "internalType": "address",
          "name": "owner",
          "type": "address"
        },
        {
          "indexed": true,
          "internalType": "address",
          "name": "approved",
          "type": "address"
        },
        {
          "indexed": true,
          "internalType": "uint256",
          "name": "tokenId",
          "type": "uint256"
        }
      ],
      "name": "Approval",
      "type": "event"
    },
    {
      "anonymous": false,
      "inputs": [
        {
          "indexed": true,
          "internalType": "address",
          "name": "owner",
          "type": "address"
        },
        {
          "indexed": true,
          "internalType": "address",
          "name": "operator",
          "type": "address"
        },
        {
          "indexed": false,
          "internalType": "bool",
          "name": "approved",
          "type": "bool"
        }
      ],
      "name": "ApprovalForAll",
      "type": "event"
    },
    {
      "anonymous": false,
      "inputs": [
        {
          "indexed": true,
          "internalType": "address",
          "name": "from",
          "type": "address"
        },
        {
          "indexed": true,
          "internalType": "address",
          "name": "to",
          "type": "address"
        },
        {
          "indexed": true,
          "internalType": "uint256",
          "name": "tokenId",
          "type": "uint256"
        }
      ],
      "name": "Transfer",
      "type": "event"
    },
    {
      "anonymous": false,
      "inputs": [
        {
          "indexed": false,
          "internalType": "address",
          "name": "sender",
          "type": "address"
        },
        {
          "indexed": false,
          "internalType": "uint256",
          "name": "tokenCount",
          "type": "uint256"
        }
      ],
      "name": "numerge",
      "type": "event"
    },
    {
      "inputs": [
        {
          "internalType": "address",
          "name": "to",
          "type": "address"
        },
        {
          "internalType": "uint256",
          "name": "tokenId",
          "type": "uint256"
        }
      ],
      "name": "approve",
      "outputs": [],
      "stateMutability": "nonpayable",
      "type": "function"
    },
    {
      "inputs": [
        {
          "internalType": "address",
          "name": "owner",
          "type": "address"
        }
      ],
      "name": "balanceOf",
      "outputs": [
        {
          "internalType": "uint256",
          "name": "",
          "type": "uint256"
        }
      ],
      "stateMutability": "view",
      "type": "function"
    },
    {
      "inputs": [
        {
          "internalType": "address",
          "name": "",
          "type": "address"
        }
      ],
      "name": "escrowadrese",
      "outputs": [
        {
          "internalType": "uint256",
          "name": "",
          "type": "uint256"
        }
      ],
      "stateMutability": "view",
      "type": "function"
    },
    {
      "inputs": [
        {
          "internalType": "uint256",
          "name": "tokenId",
          "type": "uint256"
        }
      ],
      "name": "getApproved",
      "outputs": [
        {
          "internalType": "address",
          "name": "",
          "type": "address"
        }
      ],
      "stateMutability": "view",
      "type": "function"
    },
    {
      "inputs": [],
      "name": "getOwnedNFTs",
      "outputs": [
        {
          "internalType": "uint256[]",
          "name": "",
          "type": "uint256[]"
        }
      ],
      "stateMutability": "nonpayable",
      "type": "function"
    },
    {
      "inputs": [
        {
          "internalType": "address",
          "name": "owner",
          "type": "address"
        },
        {
          "internalType": "address",
          "name": "operator",
          "type": "address"
        }
      ],
      "name": "isApprovedForAll",
      "outputs": [
        {
          "internalType": "bool",
          "name": "",
          "type": "bool"
        }
      ],
      "stateMutability": "view",
      "type": "function"
    },
    {
      "inputs": [],
      "name": "name",
      "outputs": [
        {
          "internalType": "string",
          "name": "",
          "type": "string"
        }
      ],
      "stateMutability": "view",
      "type": "function"
    },
    {
      "inputs": [
        {
          "internalType": "uint256",
          "name": "tokenId",
          "type": "uint256"
        }
      ],
      "name": "ownerOf",
      "outputs": [
        {
          "internalType": "address",
          "name": "",
          "type": "address"
        }
      ],
      "stateMutability": "view",
      "type": "function"
    },
    {
      "inputs": [],
      "name": "pay",
      "outputs": [],
      "stateMutability": "payable",
      "type": "function"
    },
    {
      "inputs": [],
      "name": "putere",
      "outputs": [
        {
          "internalType": "uint256",
          "name": "",
          "type": "uint256"
        }
      ],
      "stateMutability": "view",
      "type": "function"
    },
    {
      "inputs": [
        {
          "internalType": "address",
          "name": "from",
          "type": "address"
        },
        {
          "internalType": "address",
          "name": "to",
          "type": "address"
        },
        {
          "internalType": "uint256",
          "name": "tokenId",
          "type": "uint256"
        }
      ],
      "name": "safeTransferFrom",
      "outputs": [],
      "stateMutability": "nonpayable",
      "type": "function"
    },
    {
      "inputs": [
        {
          "internalType": "address",
          "name": "from",
          "type": "address"
        },
        {
          "internalType": "address",
          "name": "to",
          "type": "address"
        },
        {
          "internalType": "uint256",
          "name": "tokenId",
          "type": "uint256"
        },
        {
          "internalType": "bytes",
          "name": "data",
          "type": "bytes"
        }
      ],
      "name": "safeTransferFrom",
      "outputs": [],
      "stateMutability": "nonpayable",
      "type": "function"
    },
    {
      "inputs": [
        {
          "internalType": "address",
          "name": "operator",
          "type": "address"
        },
        {
          "internalType": "bool",
          "name": "approved",
          "type": "bool"
        }
      ],
      "name": "setApprovalForAll",
      "outputs": [],
      "stateMutability": "nonpayable",
      "type": "function"
    },
    {
      "inputs": [
        {
          "internalType": "bytes4",
          "name": "interfaceId",
          "type": "bytes4"
        }
      ],
      "name": "supportsInterface",
      "outputs": [
        {
          "internalType": "bool",
          "name": "",
          "type": "bool"
        }
      ],
      "stateMutability": "view",
      "type": "function"
    },
    {
      "inputs": [],
      "name": "symbol",
      "outputs": [
        {
          "internalType": "string",
          "name": "",
          "type": "string"
        }
      ],
      "stateMutability": "view",
      "type": "function"
    },
    {
      "inputs": [
        {
          "internalType": "uint256",
          "name": "index",
          "type": "uint256"
        }
      ],
      "name": "tokenByIndex",
      "outputs": [
        {
          "internalType": "uint256",
          "name": "",
          "type": "uint256"
        }
      ],
      "stateMutability": "view",
      "type": "function"
    },
    {
      "inputs": [
        {
          "internalType": "address",
          "name": "owner",
          "type": "address"
        },
        {
          "internalType": "uint256",
          "name": "index",
          "type": "uint256"
        }
      ],
      "name": "tokenOfOwnerByIndex",
      "outputs": [
        {
          "internalType": "uint256",
          "name": "",
          "type": "uint256"
        }
      ],
      "stateMutability": "view",
      "type": "function"
    },
    {
      "inputs": [
        {
          "internalType": "uint256",
          "name": "tokenId",
          "type": "uint256"
        }
      ],
      "name": "tokenURI",
      "outputs": [
        {
          "internalType": "string",
          "name": "",
          "type": "string"
        }
      ],
      "stateMutability": "view",
      "type": "function"
    },
    {
      "inputs": [],
      "name": "totalSupply",
      "outputs": [
        {
          "internalType": "uint256",
          "name": "",
          "type": "uint256"
        }
      ],
      "stateMutability": "view",
      "type": "function"
    },
    {
      "inputs": [
        {
          "internalType": "address",
          "name": "from",
          "type": "address"
        },
        {
          "internalType": "address",
          "name": "to",
          "type": "address"
        },
        {
          "internalType": "uint256",
          "name": "tokenId",
          "type": "uint256"
        }
      ],
      "name": "transferFrom",
      "outputs": [],
      "stateMutability": "nonpayable",
      "type": "function"
    },
    {
      "inputs": [
        {
          "internalType": "address",
          "name": "to",
          "type": "address"
        },
        {
          "internalType": "uint256",
          "name": "tokenId",
          "type": "uint256"
        }
      ],
      "name": "transferNFT",
      "outputs": [],
      "stateMutability": "nonpayable",
      "type": "function"
    },
    {
      "inputs": [],
      "name": "withdrawall",
      "outputs": [],
      "stateMutability": "nonpayable",
      "type": "function"
    }
  ],
  "bytecode": "0x608060405234801561001057600080fd5b506040518060400160405280600c81526020017f57616c6c6574457363726f7700000000000000000000000000000000000000008152506040518060400160405280600381526020017f57414c0000000000000000000000000000000000000000000000000000000000815250816000908161008c91906102f4565b50806001908161009c91906102f4565b5050506103c6565b600081519050919050565b7f4e487b7100000000000000000000000000000000000000000000000000000000600052604160045260246000fd5b7f4e487b7100000000000000000000000000000000000000000000000000000000600052602260045260246000fd5b6000600282049050600182168061012557607f821691505b602082108103610138576101376100de565b5b50919050565b60008190508160005260206000209050919050565b60006020601f8301049050919050565b600082821b905092915050565b6000600883026101a07fffffffffffffffffffffffffffffffffffffffffffffffffffffffffffffffff82610163565b6101aa8683610163565b95508019841693508086168417925050509392505050565b6000819050919050565b6000819050919050565b60006101f16101ec6101e7846101c2565b6101cc565b6101c2565b9050919050565b6000819050919050565b61020b836101d6565b61021f610217826101f8565b848454610170565b825550505050565b600090565b610234610227565b61023f818484610202565b505050565b5b818110156102635761025860008261022c565b600181019050610245565b5050565b601f8211156102a8576102798161013e565b61028284610153565b81016020851015610291578190505b6102a561029d85610153565b830182610244565b50505b505050565b600082821c905092915050565b60006102cb600019846008026102ad565b1980831691505092915050565b60006102e483836102ba565b9150826002028217905092915050565b6102fd826100a4565b67ffffffffffffffff811115610316576103156100af565b5b610320825461010d565b61032b828285610267565b600060209050601f83116001811461035e576000841561034c578287015190505b61035685826102d8565b8655506103be565b601f19841661036c8661013e565b60005b828110156103945784890151825560018201915060208501945060208101905061036f565b868310156103b157848901516103ad601f8916826102ba565b8355505b6001600288020188555050505b505050505050565b612ca9806103d56000396000f3fe6080604052600436106101355760003560e01c80634f6ccce7116100ab578063a22cb4651161006f578063a22cb4651461043f578063b88d4fde14610468578063bf7d1b7b14610491578063c87b56dd146104bc578063e985e9c5146104f9578063f66c72811461053657610135565b80634f6ccce7146103345780636352211e1461037157806370a08231146103ae57806394ab67fe146103eb57806395d89b411461041457610135565b80631b9265b8116100fd5780631b9265b8146102335780631c26d5961461023d57806323b872dd1461027a5780632f745c59146102a357806342842e0e146102e05780634c0eb7d91461030957610135565b806301ffc9a71461013a57806306fdde0314610177578063081812fc146101a2578063095ea7b3146101df57806318160ddd14610208575b600080fd5b34801561014657600080fd5b50610161600480360381019061015c9190612198565b61054d565b60405161016e91906121e0565b60405180910390f35b34801561018357600080fd5b5061018c6105c7565b604051610199919061228b565b60405180910390f35b3480156101ae57600080fd5b506101c960048036038101906101c491906122e3565b610659565b6040516101d69190612351565b60405180910390f35b3480156101eb57600080fd5b5061020660048036038101906102019190612398565b610675565b005b34801561021457600080fd5b5061021d61068b565b60405161022a91906123e7565b60405180910390f35b61023b610698565b005b34801561024957600080fd5b50610264600480360381019061025f9190612402565b6106f0565b60405161027191906123e7565b60405180910390f35b34801561028657600080fd5b506102a1600480360381019061029c919061242f565b610708565b005b3480156102af57600080fd5b506102ca60048036038101906102c59190612398565b61080a565b6040516102d791906123e7565b60405180910390f35b3480156102ec57600080fd5b506103076004803603810190610302919061242f565b6108b3565b005b34801561031557600080fd5b5061031e6108d3565b60405161032b9190612540565b60405180910390f35b34801561034057600080fd5b5061035b600480360381019061035691906122e3565b6109f5565b60405161036891906123e7565b60405180910390f35b34801561037d57600080fd5b50610398600480360381019061039391906122e3565b610a6b565b6040516103a59190612351565b60405180910390f35b3480156103ba57600080fd5b506103d560048036038101906103d09190612402565b610a7d565b6040516103e291906123e7565b60405180910390f35b3480156103f757600080fd5b50610412600480360381019061040d9190612398565b610b37565b005b34801561042057600080fd5b50610429610bbc565b604051610436919061228b565b60405180910390f35b34801561044b57600080fd5b506104666004803603810190610461919061258e565b610c4e565b005b34801561047457600080fd5b5061048f600480360381019061048a9190612703565b610c64565b005b34801561049d57600080fd5b506104a6610c89565b6040516104b391906123e7565b60405180910390f35b3480156104c857600080fd5b506104e360048036038101906104de91906122e3565b610cdb565b6040516104f0919061228b565b60405180910390f35b34801561050557600080fd5b50610520600480360381019061051b9190612786565b610d44565b60405161052d91906121e0565b60405180910390f35b34801561054257600080fd5b5061054b610dd8565b005b60007f780e9d63000000000000000000000000000000000000000000000000000000007bffffffffffffffffffffffffffffffffffffffffffffffffffffffff1916827bffffffffffffffffffffffffffffffffffffffffffffffffffffffff191614806105c057506105bf82610eee565b5b9050919050565b6060600080546105d6906127f5565b80601f0160208091040260200160405190810160405280929190818152602001828054610602906127f5565b801561064f5780601f106106245761010080835404028352916020019161064f565b820191906000526020600020905b81548152906001019060200180831161063257829003601f168201915b5050505050905090565b600061066482610fd0565b5061066e82611058565b9050919050565b6106878282610682611095565b61109d565b5050565b6000600880549050905090565b34600a60003373ffffffffffffffffffffffffffffffffffffffff1673ffffffffffffffffffffffffffffffffffffffff16815260200190815260200160002060008282546106e79190612855565b92505081905550565b600a6020528060005260406000206000915090505481565b600073ffffffffffffffffffffffffffffffffffffffff168273ffffffffffffffffffffffffffffffffffffffff160361077a5760006040517f64a0ae920000000000000000000000000000000000000000000000000000000081526004016107719190612351565b60405180910390fd5b600061078e8383610789611095565b6110af565b90508373ffffffffffffffffffffffffffffffffffffffff168173ffffffffffffffffffffffffffffffffffffffff1614610804578382826040517f64283d7b0000000000000000000000000000000000000000000000000000000081526004016107fb93929190612889565b60405180910390fd5b50505050565b600061081583610a7d565b821061085a5782826040517fa57d13dc0000000000000000000000000000000000000000000000000000000081526004016108519291906128c0565b60405180910390fd5b600660008473ffffffffffffffffffffffffffffffffffffffff1673ffffffffffffffffffffffffffffffffffffffff168152602001908152602001600020600083815260200190815260200160002054905092915050565b6108ce83838360405180602001604052806000815250610c64565b505050565b606060006108e033610a7d565b90507f1482759c2f4be36589b4e9398649a43487524adb51d3d25789a83cdf54ec73a933826040516109139291906128c0565b60405180910390a16000811161095e576040517f08c379a000000000000000000000000000000000000000000000000000000000815260040161095590612935565b60405180910390fd5b60008167ffffffffffffffff81111561097a576109796125d8565b5b6040519080825280602002602001820160405280156109a85781602001602082028036833780820191505090505b50905060005b828110156109ec576109c0338261080a565b8282815181106109d3576109d2612955565b5b60200260200101818152505080806001019150506109ae565b50809250505090565b60006109ff61068b565b8210610a45576000826040517fa57d13dc000000000000000000000000000000000000000000000000000000008152600401610a3c9291906128c0565b60405180910390fd5b60088281548110610a5957610a58612955565b5b90600052602060002001549050919050565b6000610a7682610fd0565b9050919050565b60008073ffffffffffffffffffffffffffffffffffffffff168273ffffffffffffffffffffffffffffffffffffffff1603610af05760006040517f89c62b64000000000000000000000000000000000000000000000000000000008152600401610ae79190612351565b60405180910390fd5b600360008373ffffffffffffffffffffffffffffffffffffffff1673ffffffffffffffffffffffffffffffffffffffff168152602001908152602001600020549050919050565b3373ffffffffffffffffffffffffffffffffffffffff16610b5782610a6b565b73ffffffffffffffffffffffffffffffffffffffff1614610bad576040517f08c379a0000000000000000000000000000000000000000000000000000000008152600401610ba4906129d0565b60405180910390fd5b610bb83383836111cc565b5050565b606060018054610bcb906127f5565b80601f0160208091040260200160405190810160405280929190818152602001828054610bf7906127f5565b8015610c445780601f10610c1957610100808354040283529160200191610c44565b820191906000526020600020905b815481529060010190602001808311610c2757829003601f168201915b5050505050905090565b610c60610c59611095565b8383611339565b5050565b610c6f848484610708565b610c83610c7a611095565b858585856114a8565b50505050565b6000600a8060003373ffffffffffffffffffffffffffffffffffffffff1673ffffffffffffffffffffffffffffffffffffffff16815260200190815260200160002054610cd691906129f0565b905090565b6060610ce682610fd0565b506000610cf1611659565b90506000815111610d115760405180602001604052806000815250610d3c565b80610d1b84611670565b604051602001610d2c929190612a6e565b6040516020818303038152906040525b915050919050565b6000600560008473ffffffffffffffffffffffffffffffffffffffff1673ffffffffffffffffffffffffffffffffffffffff16815260200190815260200160002060008373ffffffffffffffffffffffffffffffffffffffff1673ffffffffffffffffffffffffffffffffffffffff16815260200190815260200160002060009054906101000a900460ff16905092915050565b6000600a60003373ffffffffffffffffffffffffffffffffffffffff1673ffffffffffffffffffffffffffffffffffffffff16815260200190815260200160002054905060008111610e5f576040517f08c379a0000000000000000000000000000000000000000000000000000000008152600401610e5690612ade565b60405180910390fd5b6000600a60003373ffffffffffffffffffffffffffffffffffffffff1673ffffffffffffffffffffffffffffffffffffffff168152602001908152602001600020819055503373ffffffffffffffffffffffffffffffffffffffff166108fc829081150290604051600060405180830381858888f19350505050158015610eea573d6000803e3d6000fd5b5050565b60007f80ac58cd000000000000000000000000000000000000000000000000000000007bffffffffffffffffffffffffffffffffffffffffffffffffffffffff1916827bffffffffffffffffffffffffffffffffffffffffffffffffffffffff19161480610fb957507f5b5e139f000000000000000000000000000000000000000000000000000000007bffffffffffffffffffffffffffffffffffffffffffffffffffffffff1916827bffffffffffffffffffffffffffffffffffffffffffffffffffffffff1916145b80610fc95750610fc88261173e565b5b9050919050565b600080610fdc836117a8565b9050600073ffffffffffffffffffffffffffffffffffffffff168173ffffffffffffffffffffffffffffffffffffffff160361104f57826040517f7e27328900000000000000000000000000000000000000000000000000000000815260040161104691906123e7565b60405180910390fd5b80915050919050565b60006004600083815260200190815260200160002060009054906101000a900473ffffffffffffffffffffffffffffffffffffffff169050919050565b600033905090565b6110aa83838360016117e5565b505050565b6000806110bd8585856119aa565b9050600073ffffffffffffffffffffffffffffffffffffffff168173ffffffffffffffffffffffffffffffffffffffff1603611101576110fc84611bc4565b611140565b8473ffffffffffffffffffffffffffffffffffffffff168173ffffffffffffffffffffffffffffffffffffffff161461113f5761113e8185611c0d565b5b5b600073ffffffffffffffffffffffffffffffffffffffff168573ffffffffffffffffffffffffffffffffffffffff16036111825761117d84611cf8565b6111c1565b8473ffffffffffffffffffffffffffffffffffffffff168173ffffffffffffffffffffffffffffffffffffffff16146111c0576111bf8585611dc9565b5b5b809150509392505050565b600073ffffffffffffffffffffffffffffffffffffffff168273ffffffffffffffffffffffffffffffffffffffff160361123e5760006040517f64a0ae920000000000000000000000000000000000000000000000000000000081526004016112359190612351565b60405180910390fd5b600061124c838360006110af565b9050600073ffffffffffffffffffffffffffffffffffffffff168173ffffffffffffffffffffffffffffffffffffffff16036112bf57816040517f7e2732890000000000000000000000000000000000000000000000000000000081526004016112b691906123e7565b60405180910390fd5b8373ffffffffffffffffffffffffffffffffffffffff168173ffffffffffffffffffffffffffffffffffffffff1614611333578382826040517f64283d7b00000000000000000000000000000000000000000000000000000000815260040161132a93929190612889565b60405180910390fd5b50505050565b600073ffffffffffffffffffffffffffffffffffffffff168273ffffffffffffffffffffffffffffffffffffffff16036113aa57816040517f5b08ba180000000000000000000000000000000000000000000000000000000081526004016113a19190612351565b60405180910390fd5b80600560008573ffffffffffffffffffffffffffffffffffffffff1673ffffffffffffffffffffffffffffffffffffffff16815260200190815260200160002060008473ffffffffffffffffffffffffffffffffffffffff1673ffffffffffffffffffffffffffffffffffffffff16815260200190815260200160002060006101000a81548160ff0219169083151502179055508173ffffffffffffffffffffffffffffffffffffffff168373ffffffffffffffffffffffffffffffffffffffff167f17307eab39ab6107e8899845ad3d59bd9653f200f220920489ca2b5937696c318360405161149b91906121e0565b60405180910390a3505050565b60008373ffffffffffffffffffffffffffffffffffffffff163b1115611652578273ffffffffffffffffffffffffffffffffffffffff1663150b7a02868685856040518563ffffffff1660e01b81526004016115079493929190612b53565b6020604051808303816000875af192505050801561154357506040513d601f19601f820116820180604052508101906115409190612bb4565b60015b6115c7573d8060008114611573576040519150601f19603f3d011682016040523d82523d6000602084013e611578565b606091505b5060008151036115bf57836040517f64a0ae920000000000000000000000000000000000000000000000000000000081526004016115b69190612351565b60405180910390fd5b805181602001fd5b63150b7a0260e01b7bffffffffffffffffffffffffffffffffffffffffffffffffffffffff1916817bffffffffffffffffffffffffffffffffffffffffffffffffffffffff19161461165057836040517f64a0ae920000000000000000000000000000000000000000000000000000000081526004016116479190612351565b60405180910390fd5b505b5050505050565b606060405180602001604052806000815250905090565b60606000600161167f84611e54565b01905060008167ffffffffffffffff81111561169e5761169d6125d8565b5b6040519080825280601f01601f1916602001820160405280156116d05781602001600182028036833780820191505090505b509050600082602001820190505b600115611733578080600190039150507f3031323334353637383961626364656600000000000000000000000000000000600a86061a8153600a858161172757611726612be1565b5b049450600085036116de575b819350505050919050565b60007f01ffc9a7000000000000000000000000000000000000000000000000000000007bffffffffffffffffffffffffffffffffffffffffffffffffffffffff1916827bffffffffffffffffffffffffffffffffffffffffffffffffffffffff1916149050919050565b60006002600083815260200190815260200160002060009054906101000a900473ffffffffffffffffffffffffffffffffffffffff169050919050565b808061181e5750600073ffffffffffffffffffffffffffffffffffffffff168273ffffffffffffffffffffffffffffffffffffffff1614155b1561195257600061182e84610fd0565b9050600073ffffffffffffffffffffffffffffffffffffffff168373ffffffffffffffffffffffffffffffffffffffff161415801561189957508273ffffffffffffffffffffffffffffffffffffffff168173ffffffffffffffffffffffffffffffffffffffff1614155b80156118ac57506118aa8184610d44565b155b156118ee57826040517fa9fbf51f0000000000000000000000000000000000000000000000000000000081526004016118e59190612351565b60405180910390fd5b811561195057838573ffffffffffffffffffffffffffffffffffffffff168273ffffffffffffffffffffffffffffffffffffffff167f8c5be1e5ebec7d5bd14f71427d1e84f3dd0314c0f7b2291e5b200ac8c7c3b92560405160405180910390a45b505b836004600085815260200190815260200160002060006101000a81548173ffffffffffffffffffffffffffffffffffffffff021916908373ffffffffffffffffffffffffffffffffffffffff16021790555050505050565b6000806119b6846117a8565b9050600073ffffffffffffffffffffffffffffffffffffffff168373ffffffffffffffffffffffffffffffffffffffff16146119f8576119f7818486611fa7565b5b600073ffffffffffffffffffffffffffffffffffffffff168173ffffffffffffffffffffffffffffffffffffffff1614611a8957611a3a6000856000806117e5565b6001600360008373ffffffffffffffffffffffffffffffffffffffff1673ffffffffffffffffffffffffffffffffffffffff168152602001908152602001600020600082825403925050819055505b600073ffffffffffffffffffffffffffffffffffffffff168573ffffffffffffffffffffffffffffffffffffffff1614611b0c576001600360008773ffffffffffffffffffffffffffffffffffffffff1673ffffffffffffffffffffffffffffffffffffffff168152602001908152602001600020600082825401925050819055505b846002600086815260200190815260200160002060006101000a81548173ffffffffffffffffffffffffffffffffffffffff021916908373ffffffffffffffffffffffffffffffffffffffff160217905550838573ffffffffffffffffffffffffffffffffffffffff168273ffffffffffffffffffffffffffffffffffffffff167fddf252ad1be2c89b69c2b068fc378daa952ba7f163c4a11628f55a4df523b3ef60405160405180910390a4809150509392505050565b6008805490506009600083815260200190815260200160002081905550600881908060018154018082558091505060019003906000526020600020016000909190919091505550565b6000611c1883610a7d565b90506000600760008481526020019081526020016000205490506000600660008673ffffffffffffffffffffffffffffffffffffffff1673ffffffffffffffffffffffffffffffffffffffff1681526020019081526020016000209050828214611cc45760008160008581526020019081526020016000205490508082600085815260200190815260200160002081905550826007600083815260200190815260200160002081905550505b6007600085815260200190815260200160002060009055806000848152602001908152602001600020600090555050505050565b60006001600880549050611d0c9190612c10565b9050600060096000848152602001908152602001600020549050600060088381548110611d3c57611d3b612955565b5b906000526020600020015490508060088381548110611d5e57611d5d612955565b5b906000526020600020018190555081600960008381526020019081526020016000208190555060096000858152602001908152602001600020600090556008805480611dad57611dac612c44565b5b6001900381819060005260206000200160009055905550505050565b60006001611dd684610a7d565b611de09190612c10565b905081600660008573ffffffffffffffffffffffffffffffffffffffff1673ffffffffffffffffffffffffffffffffffffffff168152602001908152602001600020600083815260200190815260200160002081905550806007600084815260200190815260200160002081905550505050565b600080600090507a184f03e93ff9f4daa797ed6e38ed64bf6a1f0100000000000000008310611eb2577a184f03e93ff9f4daa797ed6e38ed64bf6a1f0100000000000000008381611ea857611ea7612be1565b5b0492506040810190505b6d04ee2d6d415b85acef81000000008310611eef576d04ee2d6d415b85acef81000000008381611ee557611ee4612be1565b5b0492506020810190505b662386f26fc100008310611f1e57662386f26fc100008381611f1457611f13612be1565b5b0492506010810190505b6305f5e1008310611f47576305f5e1008381611f3d57611f3c612be1565b5b0492506008810190505b6127108310611f6c576127108381611f6257611f61612be1565b5b0492506004810190505b60648310611f8f5760648381611f8557611f84612be1565b5b0492506002810190505b600a8310611f9e576001810190505b80915050919050565b611fb283838361206b565b61206657600073ffffffffffffffffffffffffffffffffffffffff168373ffffffffffffffffffffffffffffffffffffffff160361202757806040517f7e27328900000000000000000000000000000000000000000000000000000000815260040161201e91906123e7565b60405180910390fd5b81816040517f177e802f00000000000000000000000000000000000000000000000000000000815260040161205d9291906128c0565b60405180910390fd5b505050565b60008073ffffffffffffffffffffffffffffffffffffffff168373ffffffffffffffffffffffffffffffffffffffff161415801561212357508273ffffffffffffffffffffffffffffffffffffffff168473ffffffffffffffffffffffffffffffffffffffff1614806120e457506120e38484610d44565b5b8061212257508273ffffffffffffffffffffffffffffffffffffffff1661210a83611058565b73ffffffffffffffffffffffffffffffffffffffff16145b5b90509392505050565b6000604051905090565b600080fd5b600080fd5b60007fffffffff0000000000000000000000000000000000000000000000000000000082169050919050565b61217581612140565b811461218057600080fd5b50565b6000813590506121928161216c565b92915050565b6000602082840312156121ae576121ad612136565b5b60006121bc84828501612183565b91505092915050565b60008115159050919050565b6121da816121c5565b82525050565b60006020820190506121f560008301846121d1565b92915050565b600081519050919050565b600082825260208201905092915050565b60005b8381101561223557808201518184015260208101905061221a565b60008484015250505050565b6000601f19601f8301169050919050565b600061225d826121fb565b6122678185612206565b9350612277818560208601612217565b61228081612241565b840191505092915050565b600060208201905081810360008301526122a58184612252565b905092915050565b6000819050919050565b6122c0816122ad565b81146122cb57600080fd5b50565b6000813590506122dd816122b7565b92915050565b6000602082840312156122f9576122f8612136565b5b6000612307848285016122ce565b91505092915050565b600073ffffffffffffffffffffffffffffffffffffffff82169050919050565b600061233b82612310565b9050919050565b61234b81612330565b82525050565b60006020820190506123666000830184612342565b92915050565b61237581612330565b811461238057600080fd5b50565b6000813590506123928161236c565b92915050565b600080604083850312156123af576123ae612136565b5b60006123bd85828601612383565b92505060206123ce858286016122ce565b9150509250929050565b6123e1816122ad565b82525050565b60006020820190506123fc60008301846123d8565b92915050565b60006020828403121561241857612417612136565b5b600061242684828501612383565b91505092915050565b60008060006060848603121561244857612447612136565b5b600061245686828701612383565b935050602061246786828701612383565b9250506040612478868287016122ce565b9150509250925092565b600081519050919050565b600082825260208201905092915050565b6000819050602082019050919050565b6124b7816122ad565b82525050565b60006124c983836124ae565b60208301905092915050565b6000602082019050919050565b60006124ed82612482565b6124f7818561248d565b93506125028361249e565b8060005b8381101561253357815161251a88826124bd565b9750612525836124d5565b925050600181019050612506565b5085935050505092915050565b6000602082019050818103600083015261255a81846124e2565b905092915050565b61256b816121c5565b811461257657600080fd5b50565b60008135905061258881612562565b92915050565b600080604083850312156125a5576125a4612136565b5b60006125b385828601612383565b92505060206125c485828601612579565b9150509250929050565b600080fd5b600080fd5b7f4e487b7100000000000000000000000000000000000000000000000000000000600052604160045260246000fd5b61261082612241565b810181811067ffffffffffffffff8211171561262f5761262e6125d8565b5b80604052505050565b600061264261212c565b905061264e8282612607565b919050565b600067ffffffffffffffff82111561266e5761266d6125d8565b5b61267782612241565b9050602081019050919050565b82818337600083830152505050565b60006126a66126a184612653565b612638565b9050828152602081018484840111156126c2576126c16125d3565b5b6126cd848285612684565b509392505050565b600082601f8301126126ea576126e96125ce565b5b81356126fa848260208601612693565b91505092915050565b6000806000806080858703121561271d5761271c612136565b5b600061272b87828801612383565b945050602061273c87828801612383565b935050604061274d878288016122ce565b925050606085013567ffffffffffffffff81111561276e5761276d61213b565b5b61277a878288016126d5565b91505092959194509250565b6000806040838503121561279d5761279c612136565b5b60006127ab85828601612383565b92505060206127bc85828601612383565b9150509250929050565b7f4e487b7100000000000000000000000000000000000000000000000000000000600052602260045260246000fd5b6000600282049050600182168061280d57607f821691505b6020821081036128205761281f6127c6565b5b50919050565b7f4e487b7100000000000000000000000000000000000000000000000000000000600052601160045260246000fd5b6000612860826122ad565b915061286b836122ad565b925082820190508082111561288357612882612826565b5b92915050565b600060608201905061289e6000830186612342565b6128ab60208301856123d8565b6128b86040830184612342565b949350505050565b60006040820190506128d56000830185612342565b6128e260208301846123d8565b9392505050565b7f4e75206169204e46542d75726900000000000000000000000000000000000000600082015250565b600061291f600d83612206565b915061292a826128e9565b602082019050919050565b6000602082019050818103600083015261294e81612912565b9050919050565b7f4e487b7100000000000000000000000000000000000000000000000000000000600052603260045260246000fd5b7f596f7520617265206e6f7420746865206f776e65720000000000000000000000600082015250565b60006129ba601583612206565b91506129c582612984565b602082019050919050565b600060208201905081810360008301526129e9816129ad565b9050919050565b60006129fb826122ad565b9150612a06836122ad565b9250828202612a14816122ad565b91508282048414831517612a2b57612a2a612826565b5b5092915050565b600081905092915050565b6000612a48826121fb565b612a528185612a32565b9350612a62818560208601612217565b80840191505092915050565b6000612a7a8285612a3d565b9150612a868284612a3d565b91508190509392505050565b7f4e6f2066756e647320746f207769746864726177000000000000000000000000600082015250565b6000612ac8601483612206565b9150612ad382612a92565b602082019050919050565b60006020820190508181036000830152612af781612abb565b9050919050565b600081519050919050565b600082825260208201905092915050565b6000612b2582612afe565b612b2f8185612b09565b9350612b3f818560208601612217565b612b4881612241565b840191505092915050565b6000608082019050612b686000830187612342565b612b756020830186612342565b612b8260408301856123d8565b8181036060830152612b948184612b1a565b905095945050505050565b600081519050612bae8161216c565b92915050565b600060208284031215612bca57612bc9612136565b5b6000612bd884828501612b9f565b91505092915050565b7f4e487b7100000000000000000000000000000000000000000000000000000000600052601260045260246000fd5b6000612c1b826122ad565b9150612c26836122ad565b9250828203905081811115612c3e57612c3d612826565b5b92915050565b7f4e487b7100000000000000000000000000000000000000000000000000000000600052603160045260246000fdfea26469706673582212200a59b4a8c40ab1bc3d9434a896adedd73cc8440ba99ac4e1c3b835ef17984c5a64736f6c634300081b0033",
  "linkReferences": {},
  "deployedLinkReferences": {}
}