{
  "_format": "hh-sol-artifact-1",
  "contractName": "WalletEscrow",
  "sourceName": "contracts/WalletEscrow.sol",
  "abi": [
    {
      "inputs": [
        {
          "internalType": "address",
          "name": "",
          "type": "address"
        }
      ],
      "name": "escrowadrese",
      "outputs": [
        {
          "internalType": "uint256",
          "name": "",
          "type": "uint256"
        }
      ],
      "stateMutability": "view",
      "type": "function"
    },
    {
      "inputs": [],
      "name": "pay",
      "outputs": [],
      "stateMutability": "payable",
      "type": "function"
    },
    {
      "inputs": [],
      "name": "putere",
      "outputs": [
        {
          "internalType": "uint256",
          "name": "",
          "type": "uint256"
        }
      ],
      "stateMutability": "view",
      "type": "function"
    },
    {
      "inputs": [],
      "name": "withdrawall",
      "outputs": [],
      "stateMutability": "nonpayable",
      "type": "function"
    }
  ],
  "bytecode": "0x6080604052348015600f57600080fd5b506104be8061001f6000396000f3fe60806040526004361061003f5760003560e01c80631b9265b8146100445780631c26d5961461004e578063bf7d1b7b1461008b578063f66c7281146100b6575b600080fd5b61004c6100cd565b005b34801561005a57600080fd5b5061007560048036038101906100709190610305565b610124565b604051610082919061034b565b60405180910390f35b34801561009757600080fd5b506100a061013c565b6040516100ad919061034b565b60405180910390f35b3480156100c257600080fd5b506100cb61018e565b005b346000803373ffffffffffffffffffffffffffffffffffffffff1673ffffffffffffffffffffffffffffffffffffffff168152602001908152602001600020600082825461011b9190610395565b92505081905550565b60006020528060005260406000206000915090505481565b6000600a6000803373ffffffffffffffffffffffffffffffffffffffff1673ffffffffffffffffffffffffffffffffffffffff1681526020019081526020016000205461018991906103c9565b905090565b60008060003373ffffffffffffffffffffffffffffffffffffffff1673ffffffffffffffffffffffffffffffffffffffff16815260200190815260200160002054905060008111610214576040517f08c379a000000000000000000000000000000000000000000000000000000000815260040161020b90610468565b60405180910390fd5b60008060003373ffffffffffffffffffffffffffffffffffffffff1673ffffffffffffffffffffffffffffffffffffffff168152602001908152602001600020819055503373ffffffffffffffffffffffffffffffffffffffff166108fc829081150290604051600060405180830381858888f1935050505015801561029e573d6000803e3d6000fd5b5050565b600080fd5b600073ffffffffffffffffffffffffffffffffffffffff82169050919050565b60006102d2826102a7565b9050919050565b6102e2816102c7565b81146102ed57600080fd5b50565b6000813590506102ff816102d9565b92915050565b60006020828403121561031b5761031a6102a2565b5b6000610329848285016102f0565b91505092915050565b6000819050919050565b61034581610332565b82525050565b6000602082019050610360600083018461033c565b92915050565b7f4e487b7100000000000000000000000000000000000000000000000000000000600052601160045260246000fd5b60006103a082610332565b91506103ab83610332565b92508282019050808211156103c3576103c2610366565b5b92915050565b60006103d482610332565b91506103df83610332565b92508282026103ed81610332565b9150828204841483151761040457610403610366565b5b5092915050565b600082825260208201905092915050565b7f4e6f2066756e647320746f207769746864726177000000000000000000000000600082015250565b600061045260148361040b565b915061045d8261041c565b602082019050919050565b6000602082019050818103600083015261048181610445565b905091905056fea26469706673582212200bf2e0c4d7e35da1a4644b4c7cb2aa8d2a993b78b51b063027c6c317d23b875764736f6c634300081b0033",
  "linkReferences": {},
  "deployedLinkReferences": {}
}